:100000000C946B010C9493010C9493010C94930148
:100010000C9493010C9493010C9493010C94930110
:100020000C9493010C9493010C9493010C940A1179
:100030000C9493010C9493010C9493010C949301F0
:100040000C94FE120C9493010C94C8150C94FA15A0
:100050000C9493010C9493010C9493010C949301D0
:100060000C9493010C949301A301AA01B101B8016E
:10007000BF01D601C601D601CD0146024A024E0299
:10008000520256025A025E023C0C3C0C1B0CA00CA5
:100090003C0C590C9B0C9E0C3E004241444348458D
:1000A000434B53554D20004241444C494E454E551B
:1000B0004D20004D3131343B202D207265706F7220
:1000C0007420706F736974696F6E20616E6420664E
:1000D00065656472617465004D3130303B202D20C0
:1000E000746869732068656C70206D6573736167EF
:1000F00065004D32323B202D207475726E2072697E
:10010000676874206C61736572206F6666004D329B
:10011000313B202D207475726E20726967687420DF
:100120006C61736572206F6E004D32303B202D2064
:100130007475726E206C656674206C6173657220D4
:100140006F6666004D31393B202D207475726E202C
:100150006C656674206C61736572206F6E004D3142
:10016000383B202D2064697361626C65206D6F746B
:100170006F7273004D31373B202D20656E61626CCC
:1001800065206D6F746F727300473035205B4428B3
:10019000677261646F73295D3B202D206170756EFD
:1001A0007461204F6A6F20706F6E65722065737086
:1001B0006163696F20656E747265204420792064E4
:1001C000697200473031205B54287374657073295D
:1001D0005D205B4C287374657073295D205B462835
:1001E0006665656472617465295D3B202D206D6FC5
:1001F000766500473030205B54287374657073292E
:100200005D3B202D206C696E656172206D6F766597
:1002100000436F6D6D616E64733A004661625363B3
:10022000616E20472D434F44444520496E746572EA
:100230007072657465722056657273696F6E3A20CC
:100240000000000008000201000003040700000095
:100250000000000000010204081020408001020498
:1002600008102001020408102004040404040404FB
:10027000040202020202020303030303030000005C
:1002800000250028002B0000000000240027002A81
:10029000004E414E494E495459494E46CDCCCC3D75
:1002A0000AD7233C17B7D13877CC2B329595E62463
:1002B0001FB14F0A000020410000C84200401C4608
:1002C00020BCBE4CCA1B0E5AAEC59D74530A8F0D7E
:1002D000F7102A16980D11241FBECFEFD8E0DEBF0D
:1002E000CDBF11E0A0E0B1E0E6E8FEE302C005907A
:1002F0000D92A236B107D9F722E0A2E6B1E001C023
:100300001D92A73EB207E1F712E0C4EDD2E004C0AF
:100310002297FE010E94FC1BCC3CD107C9F70E942A
:10032000EF180C94361F0C9400000F931F93DC0100
:1003300012960C9110E009301105C0F5F801EC5C43
:10034000FF4F0C94FA1BDC01ED91FC910084F185C8
:10035000E02D29C0DC01ED91FC910284F385E02DB4
:1003600022C0DC01ED91FC910484F585E02D1BC0D9
:10037000DC01ED91FC910684F785E02D14C0DC01D1
:10038000ED91FC910088F189E02D0DC0DC01ED912B
:10039000FC910288F389E02D06C0DC01ED91FC910F
:1003A0000488F589E02D1F910F9109941F910F91F9
:1003B0000895CF93DF93EC01CB01BA0126E030E042
:1003C00040E050E00E94DB1B623071058105910521
:1003D00059F18CF46115710581059105F1F06130D9
:1003E000710581059105C1F5E881F9810480F581E8
:1003F000E02D65E02DC0643071058105910511F196
:10040000D4F0653071058105910531F5E881F981F8
:100410000480F581E02D66E01BC0E881F98104804D
:10042000F581E02D64E014C0E881F9810480F58154
:10043000E02D61E00DC0E881F9810480F581E02DB7
:1004400063E006C0E881F9810480F581E02D62E077
:10045000CE01DF91CF910994DF91CF910895CF9391
:10046000DF93477055276627772741505109DC01F4
:10047000CD91DC914730510528F4435C5F4FFA0180
:100480000C94FA1BEC81FD8161E01BC0EC81FD81C5
:1004900065E017C0EC81FD8164E013C0EC81FD8153
:1004A00066E00FC0EC81FD8162E00BC0EC81FD8154
:1004B0006AE007C0EC81FD8168E003C0EC81FD814A
:1004C00069E0DF91CF910994AF92BF92DF92EF92F2
:1004D000FF920F931F93CF93DF931F92CDB7DEB799
:1004E0008C01FC018281843041F0883031F083300E
:1004F00031F0863021F022E003C024E001C023E087
:10050000A12CB12CE62EF12CDD24D394F801EA0DB8
:10051000FB1DC7010A2C02C0959587950A94E2F746
:10052000678180FD6D25838129830E944D14FFEF33
:10053000AF1ABF0A2981A21648F30F90DF91CF911D
:100540001F910F91FF90EF90DF90BF90AF900895B3
:100550000F931F93CF93DF93EC01E881F98104801F
:10056000F581E02D8C010D5B1F4FD8018C91882304
:1005700011F062E001C060E0CE010995E881F981E7
:100580000480F581E02DD8018C91882311F063E07F
:1005900001C061E0CE0109958BA59CA50E94A51321
:1005A000E881F9810480F581E02DD8018C918823C0
:1005B00011F062E001C060E0CE01DF91CF911F91A8
:1005C0000F910994CF93DF93EC0120E030E0A90173
:1005D0006B897C898D899E890E94B31A18161CF438
:1005E000EFA5F8A902C0E9A9FAA9DF91CF91099472
:1005F0004370552766277727DC01ED91FC91048035
:10060000F581E02D423051056105710571F04330EF
:1006100051056105710559F04130510561057105BC
:1006200011F062E005C063E003C061E001C060E07A
:100630000994CF93DF93EC01CB01BA0123E030E0C2
:1006400040E050E00E94DB1B61307105810591059F
:1006500081F0623071058105910591F0672B682B5F
:10066000692BC1F4E881F9810480F581E02D64E013
:100670000DC0E881F9810480F581E02D61E006C0BC
:10068000E881F9810480F581E02D62E0CE01DF91FF
:10069000CF910994DF91CF91089543705527662734
:1006A0007727DC01ED91FC910480F581E02D42304B
:1006B00051056105710571F0433051056105710502
:1006C00059F0413051056105710511F065E005C033
:1006D00066E003C06AE001C069E00994CF93DF934C
:1006E000EC018A81882381F0E881F9810480F58119
:1006F000E02D60E0CE0109958EA58F3F29F06DA514
:10070000DF91CF910C944D14DF91CF910895CF9349
:10071000DF93EC018A81882351F161E08B810E9493
:10072000141461E08C810E9414148A81843011F0C9
:10073000883039F461E08D810E94141461E08E816B
:1007400006C0833011F0863021F461E08D810E9473
:1007500014148EA58F3F59F061E00E9414146DA50A
:1007600081E068278EA5DF91CF910C944D14DF9125
:10077000CF910895CF92DF92EF92FF920F931F9344
:10078000CF93DF93EC014BA15CA16DA17EA1452B22
:10079000462B472B09F44DC00E9448136B017C0186
:1007A0000FA118A529A53AA54BA15CA16DA17EA119
:1007B000400F511F621F731F4017510762077307D5
:1007C00030F0C416D506E606F70658F405C0C41680
:1007D000D506E606F70668F1C016D106E206F3066E
:1007E00040F5FE01ED5BFF4F80814B855C856D859B
:1007F0007E85882329F04F5F5F4F6F4F7F4F04C086
:1008000041505109610971094B875C876D877E876B
:10081000E881F9814B855C856D857E850680F78151
:10082000E02DCE010995CFA2D8A6E9A6FAA681E0CF
:1008300001C080E0DF91CF911F910F91FF90EF9069
:10084000DF90CF9008950F931F93FC016785708907
:10085000818992890385148525853685601B710BF6
:10086000820B930B1F910F9108952F923F924F92FD
:100870005F926F927F928F929F92AF92BF92CF9230
:10088000DF92EF92FF920F931F93CF93DF9300D0ED
:1008900000D0CDB7DEB71C01FC0187849088A18809
:1008A000B28883859485A585B685881A990AAA0A8F
:1008B000BB0A63897489858996899B01AC010E9472
:1008C000B71A6B017C01F101638D748D858D968D56
:1008D0009B01AC010E9400199B01AC01C701B6014C
:1008E0000E9468190E94D01981149104A104B104D6
:1008F000A1F462307105810591050CF07CC0F10115
:1009000013A214A215A216A2138A148A158A168A93
:1009100013AA14AA15AA16AA03C1F10103A914A9BE
:1009200025A936A9ED5BFF4F181419041A041B04FE
:10093000FCF410161106120613064CF4681579051E
:100940008A059B054CF52081211155C025C0011554
:1009500011052105310509F44EC0681579058A0590
:100960009B050CF048C08081882309F444C037C03F
:100970001016110612061306F4F400271127980129
:10098000081919092A093B0960177107820793079B
:100990001CF42081222379F19B01AC01882799273F
:1009A000DC01821B930BA40BB50BF10183AB94AB61
:1009B000A5ABB6AB20C00115110521053105D9F055
:1009C000CC24DD247601C818D908EA08FB086C1588
:1009D0007D058E059F057CF4808181110CC03095CA
:1009E0002095109501951F4F2F4F3F4FF10103ABFD
:1009F00014AB25AB36ABF101C3A8D4A8E5A8F6A883
:100A000081010D5B1F4FC114D104E104F10491F485
:100A100087A990ADA1ADB2AD83AF94AFA5AFB6AF8E
:100A200081E0181419041A041B040CF080E0F8018A
:100A3000808340C0F10183AC94ACA5ACB6ACA501F9
:100A40009401C501B4010E9400192B013C01C701AA
:100A5000B6010E94031A20E030E040E850E40E9412
:100A6000B71A20E030E040E85FE30E9400199B01E4
:100A7000AC01C301B2010E9468199B01AC01C50120
:100A8000B4010E94FF182B013C01F101FF96808008
:100A90009180A280B3809401A5010E94B31A181618
:100AA00014F442015301C401D501F10183AF94AFA5
:100AB000A5AFB6AFFFEFCF1ADF0AEF0AFF0AF101C9
:100AC000C3AAD4AAE5AAF6AA23AD34AD45AD56AD66
:100AD000CA01B90129833A834B835C830E94D519EB
:100AE000F10163A374A385A396A329813A814B8165
:100AF0005C8160E074E284E799E40E946819F10186
:100B0000638B748B858B968BF8012081211108C033
:100B1000DC01CB01B058F101838B948BA58BB68B94
:100B20000F900F900F900F90DF91CF911F910F9129
:100B3000FF90EF90DF90CF90BF90AF909F908F90FD
:100B40007F906F905F904F903F902F9008950F93FC
:100B50001F93FC0107851089218932890417150725
:100B60002607370741F04787508B618B728B1F91A7
:100B70000F910C9435041F910F9108950F931F93BB
:100B8000FC010385148525853685400F511F621FA2
:100B9000731F1F910F910C94A7054F925F926F9254
:100BA0007F928F929F92AF92BF92CF92DF92EF92FD
:100BB000FF92CF93DF93EC016A017B018B8C9C8CBD
:100BC000AD8CBE8C9A01AB01C501B4010E946419C1
:100BD000882309F449C06BA97CA98DA99EA90E940C
:100BE000031A2B013C01A7019601C501B4010E9423
:100BF00068199B01AC01C301B2010E94B71A0E949F
:100C0000D0196BAB7CAB8DAB9EABA701960160E0BE
:100C100070E080E090E40E9468190E941E1B26E5A7
:100C20003EE04DE25FE30E94B71A20E034E244E781
:100C300059E40E94B71A6FAB78AF89AF9AAFCB8EE9
:100C4000DC8EED8EFE8ECE01DF91CF91FF90EF9086
:100C5000DF90CF90BF90AF909F908F907F906F90DC
:100C60005F904F900C943504DF91CF91FF90EF90FF
:100C7000DF90CF90BF90AF909F908F907F906F90BC
:100C80005F904F9008950F931F93CF93DF93EC01E4
:100C90000E94BA03882319F0CE010E94350420E097
:100CA00030E0A9016B897C898D899E890E94641935
:100CB000811110C081E00F85188929893A894B85F7
:100CC0005C856D857E85041715072607370719F49F
:100CD00080E001C081E0DF91CF911F910F910895D5
:100CE0008F929F92AF92BF92CF92EF920F93CF933A
:100CF000DF93EC0184E191E0998388836A831B860A
:100D00001C861D861E861F86188A198A1A8A1B8AC7
:100D10001C8A1D8A1E8A812C912C80E8A82E8FE3C4
:100D2000B82E8F8A988EA98EBA8E1B8E1C8E1D8E21
:100D30001E8E8F8E98A2A9A2BAA21BA21CA21DA2CF
:100D40001EA281E090E09CA78BA78FEF8EA71FA229
:100D500018A619A61AA64B832C830D83EE821BAA14
:100D60001CAA1DAA1EAA1FAA18AE19AE1AAE1BAE47
:100D70001CAE1DAE1EAEFE01FF9680829182A28245
:100D8000B382349610821F82188619861A86CC2068
:100D900019F0CE010E94870340E050E060E87FE355
:100DA000CE01DF91CF910F91EF90CF90BF90AF9098
:100DB0009F908F900C94CD05CF92DF92EF92FF928F
:100DC0000F931F93CF93DF93EC016A017B019A018C
:100DD000AB016F89788D898D9A8D0E946419882363
:100DE00009F446C0CF8AD88EE98EFA8E8E01015C56
:100DF0001F4FA701960160E074E284E799E40E9426
:100E00006819F80160837183828393838BA99CA9FD
:100E1000ADA9BEA9181619061A061B064CF56B8952
:100E20007C898D899E899B01AC010E94B71A6B0158
:100E30007C016B8D7C8D8D8D9E8D9B01AC010E9404
:100E400000199B01AC01C701B6010E9468190E94FC
:100E5000D0196BAB7CAB8DAB9EABCE01DF91CF914C
:100E60001F910F91FF90EF90DF90CF900C9435047D
:100E7000DF91CF911F910F91FF90EF90DF90CF9076
:100E80000895CF92DF92EF92FF92CF93DF93EC0120
:100E90006A017B0120E030E0A901C701B6010E9490
:100EA0006419882359F0B701A601CE01DF91CF91D3
:100EB000FF90EF90DF90CF900C94CD05DF91CF9114
:100EC000FF90EF90DF90CF9008956F927F928F9276
:100ED0009F92AF92BF92CF92DF92EF92FF920F93C9
:100EE0001F93CF93DF93EC013A018B012B893C894F
:100EF0004D895E89B301C8010E946419882309F4F1
:100F000054C0CF88D88CE98CFA8C46015701B7FAC7
:100F1000B094B7F8B094A5019401B301C8010E9440
:100F2000641987FD0BC0A7019601B301C8010E9497
:100F3000B31A18162CF43601870102C0340185015A
:100F400020E030E0A901B301C8010E9464198111B9
:100F500005C01BA21CA21DA21EA221C09301A801B4
:100F600060E074E284E799E40E9468199F770E9428
:100F7000D5196BA37CA38DA39EA37E0183E4E80E09
:100F8000F11CDD24D39420E030E0A901B301C801B5
:100F90000E94B31A18160CF0D12CF701D082C301AD
:100FA000D8018B8B9C8BAD8BBE8BDF91CF911F912A
:100FB0000F91FF90EF90DF90CF90BF90AF909F90F8
:100FC0008F907F906F900895CF93DF93EC01CE01C7
:100FD0000E9443068111FBCFDF91CF9108950F93BB
:100FE0001F93FC0107851089218932894385548527
:100FF00065857685041715072607370779F0ED5BB9
:10100000FF4F40175107620773071CF421E020834C
:1010100001C010821F910F910C94BA0380E01F91C0
:101020000F910895CF93DF93EC0188859985009700
:1010300011F00E94B21C8E8187FD05C060E0DF9137
:10104000CF910C941414DF91CF910895CF93DF9337
:10105000EC018E8187FD07C061E00E94141460E0FE
:101060008E810E944D1481E08983DF91CF91089594
:10107000EF92FF920F931F93CF93DF93EC017B01CD
:1010800088859985009711F00E94B21C9D858A85FC
:10109000981303C083E090E002C084E090E08E9D4E
:1010A00080018F9D100D9E9D100D11241D830C83BA
:1010B000C8010E941A1C99878887009741F0A801EF
:1010C00060E070E00E94E21EFB82EA8204C01D82A2
:1010D0001C821B821A82DF91CF911F910F91FF908A
:1010E000EF900895FC0121E095858285981320E01A
:1010F000CB0136E0969587953A95E1F7482F4370F6
:101100004587CB0154E0969587955A95E1F7382F9E
:1011100033703287CB019695879596958795837026
:101120008387862F8370848781E06F3F710511F07C
:1011300008F080E0808380859185892B51F091E0D3
:10114000431390E0921729F062817381CF010C94D0
:1011500038080895CF92DF92EF92FF920F931F937A
:10116000CF93DF93CDB7DEB729970FB6F894DEBFE4
:101170000FBECDBF8C01DC0118968D919C91199703
:10118000892B09F49AC00E944813F801C684D784B9
:10119000E088F1886C197D098E099F096233710519
:1011A0008105910580F3F894848195819A838983E0
:1011B000A085B1857D01EFEFEE1AFE0A8C9189873B
:1011C000D8019C9152960D90BC91A02DF801848974
:1011D000992309F42EC09C91982B98879C91809517
:1011E00089238F838F818E8388E08D8358856F81DB
:1011F00049853D812E8189819A81F7015C9347FD64
:10120000252F3A952C93262F39F0441F00C000005B
:101210006C93000000C0F2CF38E041916C93000065
:10122000019761F7F801B38BA28B49873D832E8329
:1012300038C09C91982B98879C91809589238F83A7
:101240008F818C8388E08B8358856F8149853B81B2
:101250002C8189819A81F7015C9347FD252F00C07D
:1012600000C02C9300C000C000C000C000C06C9340
:101270000000262F3A9541F0441F000000C000C036
:1012800000C000C000C0E8CF38E0419100C06C93BE
:1012900000C0019709F7F801B38BA28B49873B8304
:1012A0002C839A83898378940E944813D8011E96D0
:1012B0006D937D938D939C93519729960FB6F894D7
:1012C000DEBF0FBECDBFDF91CF911F910F91FF9079
:1012D000EF90DF90CF9008951F93CF93DF93EC01B1
:1012E000162F8981882331F08E8187FD03C060E04D
:1012F0000E9414141E838981882341F061E0812FAC
:101300000E94141460E0812F0E944D14812F90E000
:10131000FC01E759FD4FE491F0E0EE0FFF1FE358A9
:10132000FD4F259134913B8B2A8BFC01EB5AFD4FED
:1013300084918C8BDF91CF911F910895EF92FF9252
:101340000F931F93CF93DF931F92CDB7DEB77C012E
:101350008B01FC0111821782118610861686178672
:10136000108A118AB90149830E947208B801C70125
:101370000E9438084981642FC7010F90DF91CF91F7
:101380001F910F91FF90EF900C946C09CF92DF9218
:10139000EF92FF920F931F93CF93DF93FC01828113
:1013A00093816817790708F04DC0CA01AA27BB27A7
:1013B000182FC32ED42EE52EFF24DC2DC22F07813B
:1013C000002361F0809FC0011124192FC09E60018D
:1013D0001124DD2D209FC0011124C92FF5848285A1
:1013E000A085B185F81208C0CB01880F991F860F20
:1013F000971F8A0F9B1F17C0CB01880F991F880F5B
:10140000991F8A0F9B1F452F552766277727DC01D9
:10141000AF0DB11D002329F0409F90011124232F0F
:1014200001C0242F2C932285DC01A20FB11D1C9337
:101430002385DC01A20FB11DDC932485FC01E20FA2
:10144000F11DC083DF91CF911F910F91FF90EF901D
:10145000DF90CF900895962F50E060E070E0592B18
:10146000682BCB01BA01089526E040E052EC61E020
:1014700070E084E492E00E9466150E949C0D0E9438
:10148000E20D0E94B10A0E94D60D0E94DE0D8AE094
:1014900090E090930F0180930E0169E070E082E686
:1014A00091E00C94601282E691E00C94C611CF9307
:1014B00084E492E00E9483141816190664F584E40B
:1014C00092E00E949C14C82F682F84E492E00E944E
:1014D000D01620917201309173012F3331055CF4E5
:1014E000A9014F5F5F4F5093730140937201F9015F
:1014F000EC58FE4FC083CA3011F0CD30C9F6E091F0
:101500007201F0917301EC58FE4F10820E94880B1B
:101510000E94850DCDCFCF910C94D710FF920F93E1
:101520001F93CF93DF93182F062FF42EC0E0D0E047
:101530004F2D602F812F0E942B0A9B01AC01BE0111
:1015400084EB91E00E94C6092196C031D10581F754
:1015500084EB91E0DF91CF911F910F91FF900C945C
:10156000AA0884EB91E00C942608FF920F931F9336
:10157000CF93DF93F82E8B01C0917201D09173014C
:10158000CC58DE4FE4E7F1E03097C9F09081992321
:10159000B1F0EC17FD0798F49F1109C0CF01019637
:1015A000DF91CF911F910F91FF900C94A41E60E2E8
:1015B00070E0CF010E94E91EFC013196E5CFC80121
:1015C000DF91CF911F910F91FF900895CF92DF92FD
:1015D000EF92FF926A017B01BC0184E492E00E94D9
:1015E000CE1622E030E0B701A60184E492E0FF903D
:1015F000EF90DF90CF900C9495186BE172E084E44B
:1016000092E00E94AB166AE271E084E492E00E94EC
:10161000ED1661E172E084E492E00E94DB1663EF74
:1016200071E084E492E00E94DB1663EC71E084E4F4
:1016300092E00E94DB1669E871E084E492E00E9487
:10164000DB1664E771E084E492E00E94DB166EE54D
:1016500071E084E492E00E94DB1664E471E084E4CB
:1016600092E00E94DB1669E271E084E492E00E945D
:10167000DB166EE071E084E492E00E94DB1662EF1C
:1016800070E084E492E00E94DB1668ED70E084E490
:1016900092E00E94DB1663EB70E084E492E00C942D
:1016A000DB166AE271E084E492E00C94ED1640915E
:1016B0006A0150916B0160916C0170916D018DE335
:1016C00091E00E94E60A40916601509167016091A5
:1016D0006801709169018BE391E00E94E60A4091F4
:1016E0000A0150910B0160910C0170910D018FE383
:1016F00091E00E94E60A80916501882319F065E374
:1017000071E002C069E371E084E492E00C94ED16AC
:10171000AF92BF92CF92DF92EF92FF920F931F93FF
:10172000CF93DF93C0917401CB3309F4E3C16FEF22
:101730007FEF8EE40E94B50AAA2797FDA095BA2FE5
:101740008F3F2FEF9207A207B20709F466C0CE348D
:1017500009F063C040916E0150916F01609170017A
:101760007091710184179507A607B70719F067EA0A
:1017700070E024C06AE270E084E791E00E94E91E14
:10178000892B09F4B7C1E4E7F1E0C0E0CF01845749
:10179000914021912A3211F0C227F8CF60E070E029
:1017A0008B589E4F0E94411DDD27C7FDD0950E949A
:1017B000D019C617D707F1F06AE970E084E492E027
:1017C0000E94AB1640916E0150916F0160917001C3
:1017D000709171012AE030E084E492E0DF91CF91D2
:1017E0001F910F91FF90EF90DF90CF90BF90AF903F
:1017F0000C94981780916E0190916F01A0917001E7
:10180000B09171010196A11DB11D80936E0190935D
:101810006F01A0937001B09371016FEF7FEF87E4C8
:101820000E94B50A8830910508F08AC0FC01EC5B83
:10183000FF4F0C94FA1B60E070E086E40E94B50A4A
:101840008C0160E070E08CE40E94B50A7C0160E0ED
:1018500070E084E50E94B50AEC01B801882777FDA5
:101860008095982F0E94031A9B01AC0101E0B701FB
:10187000CE010E94781064C060E070E086E40E94AF
:10188000B50A8C0160E070E08CE40E94B50A7C012E
:1018900060E070E084E50E94B50AEC01B801882799
:1018A00077FD8095982F0E94031A9B01AC0100E000
:1018B000DECF60E070E084E40E94B50AEC01BC0178
:1018C000882777FD8095982F0E94031A6093CB019B
:1018D0007093CC018093CD019093CE01CE0164EB47
:1018E00070E00E94A51B9093CA018093C901BC01BE
:1018F000882777FD8095982F1F921F921F9224EBC7
:101900002F93A12CB12C650114EBE12EF12C00E0FA
:1019100010E020E030E0A9010E94A7187093CA01EE
:101920006093C90182E691E00E9499120F900F9096
:101930000F900F9005C00E94F01002C00E94F4109A
:101940006FEF7FEF8DE40E94B50A8431910509F4B1
:101950008FC0BCF48131910509F46EC044F4843029
:10196000910509F446C0059709F447C0C3C0823108
:10197000910509F46FC0439709F0BCC00E94B40DF3
:1019800085C08436910509F491C09CF48531910598
:1019900009F47AC0469709F0ADC0DF91CF911F914D
:1019A0000F91FF90EF90DF90CF90BF90AF900C948D
:1019B000CB0D8237910509F485C0883C910509F467
:1019C0008DC08E36910509F095C060916E017091C1
:1019D0006F018EE40E94B50AAA2797FDA095BA2F41
:1019E00080936E0190936F01A0937001B093710189
:1019F00081C00E94CB0D0E94BC0D60E070E082E4CB
:101A00000E94B50A7C0160E070E087E40E94B50A9C
:101A1000EC0160E070E082E50E94B50AA701BE011A
:101A2000DF91CF911F910F91FF90EF90DF90CF90BA
:101A3000BF90AF900C948E0A0E94D20DDF91CF918F
:101A40001F910F91FF90EF90DF90CF90BF90AF90DC
:101A50000C94DA0D0E94D60DDF91CF911F910F915A
:101A6000FF90EF90DF90CF90BF90AF900C94DE0D81
:101A7000DF91CF911F910F91FF90EF90DF90CF906A
:101A8000BF90AF900C94BC0D0E94C30D68EE73E044
:101A900080E090E0DF91CF911F910F91FF90EF9048
:101AA000DF90CF90BF90AF900C946B13DF91CF91EC
:101AB0001F910F91FF90EF90DF90CF90BF90AF906C
:101AC0000C94FD0ADF91CF911F910F91FF90EF9041
:101AD000DF90CF90BF90AF900C94570BDF91CF91D8
:101AE0001F910F91FF90EF90DF90CF90BF90AF903C
:101AF0000C94510BDF91CF911F910F91FF90EF90BC
:101B0000DF90CF90BF90AF90089510927301109224
:101B1000720168E970E084E492E00C94DB1622E53F
:101B200030E04FE060E170E084EB91E00C949E09BE
:101B300084EB91E00C94120861E089E00E94141497
:101B400061E08AE00E94141461E08FE00E941414A6
:101B500060E08FE00E944D1460E089E00E944D1427
:101B600060E08AE00C944D1461E08AE00E944D141C
:101B700081E08093CF01089560E08AE00E944D14D7
:101B80001092CF01089561E089E00E944D1481E038
:101B90008093CF01089560E089E00E944D14109277
:101BA000CF01089560E082E00C944D1461E082E082
:101BB0000C944D1460E085E00C944D1461E085E0D8
:101BC0000C944D1461E083E10E94141460E083E101
:101BD0000E944D1461E082E00E94141461E085E0EF
:101BE0000E94141461E083E00E94141461E086E016
:101BF0000E94141461E083E10E944D1440E050E023
:101C00006AEF74E481ED91E00E94DC0640E050E070
:101C10006FE274E481ED91E00E9465070C94D60DAB
:101C20006F927F928F929F92AF92BF92CF92EF92DC
:101C30000F93CF93DF93CDB7DEB7C454D1090FB65E
:101C4000F894DEBF0FBECDBF3C014B015A01CC243E
:101C5000C39445E0E42E04E023E042E064E0CE01DA
:101C600001960E9470068AE06816710409F0CAC0E5
:101C70008091D3018B838091D4019091D501A09163
:101C8000D601B091D7018C839D83AE83BF838091B1
:101C9000D8019091D901A091DA01B091DB01888738
:101CA0009987AA87BB878091DC019091DD01A09183
:101CB000DE01B091DF018C879D87AE87BF87809161
:101CC000E0019091E101A091E201B091E301888BE4
:101CD000998BAA8BBB8B8091E4019091E501A09137
:101CE000E601B091E7018C8B9D8BAE8BBF8B809111
:101CF000E8019091E901A091EA01B091EB01888F90
:101D0000998FAA8FBB8F8091EC019091ED01A091EA
:101D1000EE01B091EF018C8F9D8FAE8FBF8F8091C0
:101D2000F0019091F101A091F201B091F30188A32B
:101D300099A3AAA3BBA38091F4019091F501A0916E
:101D4000F601B091F7018CA39DA3AEA3BFA3809130
:101D5000F8019091F901A091FA01B091FB0188A7D7
:101D600099A7AAA7BBA78091FC019091FD019DA70F
:101D70008CA78091FE018EA78091FF018FA7809193
:101D800000029091010299AB88AB80910202909180
:101D900003029BAB8AAB8091040290910502A09153
:101DA0000602B09107028CAB9DABAEABBFAB80918E
:101DB000080290910902A0910A02B0910B0288AF2B
:101DC00099AFAAAFBBAF80910C0290910D02A09188
:101DD0000E02B0910F028CAF9DAFAEAFBFAF40917E
:101DE0001002509111026091120270911302249618
:101DF0004CAF5DAF6EAF7FAF2497809114022596F4
:101E00008FAF2597A401440F551F440F551F662718
:101E100057FD6095762FCE0101960E94BE05B50153
:101E2000882777FD8095982F0E94031AAB01BC018B
:101E3000CE0101960E94650740E050E06AEF73E42E
:101E4000CE0101960E944107CE0101960E94230413
:101E5000672B682B692B29F0CE0101960E94E407BD
:101E6000F3CFCC5BDF4F0FB6F894DEBF0FBECDBF14
:101E7000DF91CF910F91EF90CF90BF90AF909F9057
:101E80008F907F906F9008952F923F924F925F9224
:101E90006F927F928F929F92AF92BF92CF92EF926A
:101EA0000F931F93CF93DF93CDB7DEB7C454D109FF
:101EB0000FB6F894DEBF0FBECDBF3C011A012B0157
:101EC00048015901CC24C39455E0E52E04E023E0F9
:101ED00042E064E0CE0101960E9470068AE0681636
:101EE000710409F0CAC08091D3018B838091D40121
:101EF0009091D501A091D601B091D7018C839D839B
:101F0000AE83BF838091D8019091D901A091DA016D
:101F1000B091DB0188879987AA87BB878091DC0114
:101F20009091DD01A091DE01B091DF018C879D874A
:101F3000AE87BF878091E0019091E101A091E2011D
:101F4000B091E301888B998BAA8BBB8B8091E401C4
:101F50009091E501A091E601B091E7018C8B9D8BFA
:101F6000AE8BBF8B8091E8019091E901A091EA01CD
:101F7000B091EB01888F998FAA8FBB8F8091EC0174
:101F80009091ED01A091EE01B091EF018C8F9D8FAA
:101F9000AE8FBF8F8091F0019091F101A091F2017D
:101FA000B091F30188A399A3AAA3BBA38091F401E4
:101FB0009091F501A091F601B091F7018CA39DA33A
:101FC000AEA3BFA38091F8019091F901A091FA010D
:101FD000B091FB0188A799A7AAA7BBA78091FC0194
:101FE0009091FD019DA78CA78091FE018EA7809105
:101FF000FF018FA7809100029091010299AB88ABFD
:1020000080910202909103029BAB8AAB8091040203
:1020100090910502A0910602B09107028CAB9DAB96
:10202000AEABBFAB8091080290910902A0910A0269
:10203000B0910B0288AF99AFAAAFBBAF80910C02F1
:1020400090910D02A0910E02B0910F028CAF9DAF46
:10205000AEAFBFAF8091100290911102A091120219
:10206000B091130224968CAF9DAFAEAFBFAF249753
:102070008091140225968FAF259720E030E040E84C
:1020800050E4C201B1010E94B71A0E94D019AB01FD
:10209000BC01CE0101960E94BE05B501A401CE018E
:1020A00001960E946507CE0101960E942304672BCA
:1020B000682B692B29F0CE0101960E94EF07F3CF20
:1020C000CC5BDF4F0FB6F894DEBF0FBECDBFDF9104
:1020D000CF911F910F91EF90CF90BF90AF909F90B5
:1020E0008F907F906F905F904F903F902F900895CA
:1020F000AF92BF92CF92DF92EF92FF920F931F9316
:10210000CF93DF935C01EB0169017A01002311F1A8
:10211000009751F0CA01B9010E94D019AB01B50175
:102120008AE090E00E94100E2097B1F1C701B6013D
:102130000E94D019AB01BE018BE090E0DF91CF91FE
:102140001F910F91FF90EF90DF90CF90BF90AF90D5
:102150000C94100E009779F0BC01882777FD8095CC
:10216000982F0E94031AAB01BC01970186018AE0F7
:1021700090E00E94440F209779F0BE01882777FDF8
:102180008095982F0E94031AAB01BC01970186012C
:102190008BE090E00E94440FDF91CF911F910F914F
:1021A000FF90EF90DF90CF90BF90AF900895809117
:1021B000D0018823A1F040E050E06AE774E481EDAB
:1021C00091E00E9465074AE050E060E070E081ED38
:1021D00091E00E94BE0581ED91E00C94BA03089550
:1021E00081E08093D00108951092D0010895CF929C
:1021F000EF920F93CC24C39465E0E62E04E024E034
:1022000043E062E081ED91E00E9470060F91EF9053
:10221000CF9008951F920F920FB60F9211242F9313
:102220003F934F935F936F937F938F939F93AF935E
:10223000BF93EF93FF938091160287FF05C0109222
:102240008500109284001AC020911602332727FDC2
:1022500030958091150290E0281739077CF4809121
:102260001602992787FD9095FC01EE0FFF1FE80FDE
:10227000F91FE95EFD4F808186FD15C08091160231
:102280008F5F8093160220911602332727FD309529
:102290008091150290E028173907BCF4809116024E
:1022A0008C305CF112C080911602992787FD9095C1
:1022B000FC01EE0FFF1FE80FF91FE95EFD4F808163
:1022C00060E08F730E944D14D9CF8091840090916B
:1022D0008500049680349C4918F480E49CE905C08C
:1022E000809184009091850004969093890080935A
:1022F00088008FEF8093160238C0209184003091BF
:10230000850080911602992787FD9095FC01EE0FBC
:10231000FF1FE80FF91FE95EFD4F81819281820F57
:10232000931F9093890080938800809116029927CB
:1023300087FD9095FC01EE0FFF1FE80FF91FE95E86
:10234000FD4F808186FF11C080911602992787FD7D
:102350009095FC01EE0FFF1FE80FF91FE95EFD4F9E
:10236000808161E08F730E944D14FF91EF91BF91C6
:10237000AF919F918F917F916F915F914F913F911D
:102380002F910F900FBE0F901F901895209115025E
:102390002C30A0F431E0320F30931502FC01208381
:1023A000822F90E0FC01EE0FFF1FE80FF91FE95E9E
:1023B000FD4F88EB9BE09283818308952FEFFC0112
:1023C00020830895DF92EF92FF920F931F93CF9394
:1023D000DF93EC01D62E7A01890188818C3008F0D8
:1023E00066C061E08D2D0E9414148881A82FB0E092
:1023F000FD01EE0FFF1FEA0FFB1FE95EFD4F2D2DC4
:102400002F739081907C922B908360E272E06E1922
:102410007F0977FF02C06D5F7F4F75956795759552
:102420006795698340E659E0401B510B57FF02C096
:102430004D5F5F4F55954795559547954A836CE09D
:102440000E94851B9CE0899FB001112420E030E0B0
:10245000A901460F571FFA01EE0FFF1FE40FF51FEA
:10246000E95EFD4F908196FD16C02F5F3F4F2C30E7
:10247000310571F781110FC01092800082E08093C6
:1024800081001092850010928400B19A80916F00B3
:10249000826080936F00888190E0FC01EE0FFF1F47
:1024A000E80FF91FE95EFD4F808180648083888199
:1024B000DF91CF911F910F91FF90EF90DF900895E2
:1024C00020E639E040E252E00C94E211FC01808108
:1024D0008C3070F5918128E830E0291B310997FD97
:1024E0003395220F331F220F331F621773077CF0BF
:1024F000928128E532E0291B310997FD3395220F9F
:10250000331F220F331F621773070CF49B012250F5
:102510003109220F331F4FB7F89490E0FC01EE0F02
:10252000FF1FE80FF91FE95EFD4F328321834FBF84
:1025300008954F925F926F927F92AF92BF92CF9227
:10254000DF92EF92FF920F931F93CF93DF93EC01F3
:10255000603282E078070CF040C077FD06C0653B32
:1025600071052CF064EB70E002C060E070E08981DE
:1025700028E830E0281B310987FD3395220F331FEF
:10258000220F331F5901CC24B7FCC094DC2C8827C0
:1025900077FD8095982F2A8148E552E0421B51092A
:1025A00027FD5395440F551F440F551F2A016624DC
:1025B00057FC6094762C7F926F925F924F9214EB4F
:1025C000E12EF12C00E010E020E030E0A9010E94B3
:1025D000A7180F900F900F900F90CE01DF91CF9121
:1025E0001F910F91FF90EF90DF90CF90BF90AF9031
:1025F0007F906F905F904F900C9466121F920F9295
:102600000FB60F9211242F933F938F939F93AF9305
:10261000BF9380913C0290913D02A0913E02B09107
:102620003F0230913B0223E0230F2D3720F4019627
:10263000A11DB11D05C026E8230F0296A11DB11DE5
:1026400020933B0280933C0290933D02A0933E0274
:10265000B0933F028091400290914102A0914202CA
:10266000B09143020196A11DB11D80934002909349
:102670004102A0934202B0934302BF91AF919F9158
:102680008F913F912F910F900FBE0F901F90189533
:102690003FB7F8948091400290914102A09142028C
:1026A000B091430226B5A89B05C02F3F19F00196B3
:1026B000A11DB11D3FBF6627782F892F9A2F620F6A
:1026C000711D811D911D42E0660F771F881F991FA4
:1026D0004A95D1F708958F929F92AF92BF92CF9271
:1026E000DF92EF92FF926B017C010E9448134B0135
:1026F0005C01C114D104E104F104F1F00E94FE1860
:102700000E944813681979098A099B09683E734039
:102710008105910570F321E0C21AD108E108F108A2
:1027200088EE880E83E0981EA11CB11CC114D10450
:10273000E104F10429F7DDCFFF90EF90DF90CF9017
:10274000BF90AF909F908F9008958230910538F0A0
:10275000880F991F880F991F05970197F1F7089522
:10276000789484B5826084BD84B5816084BD85B56C
:10277000826085BD85B5816085BDEEE6F0E0808133
:1027800081608083E1E8F0E0108280818260808354
:10279000808181608083E0E8F0E0808181608083D7
:1027A000E1EBF0E0808184608083E0EBF0E0808109
:1027B00081608083EAE7F0E08081846080838081AB
:1027C0008260808380818160808380818068808353
:1027D0001092C1000895833081F028F4813099F07F
:1027E0008230A1F008958730A9F08830B9F08430A4
:1027F000D1F4809180008F7D03C0809180008F771D
:1028000080938000089584B58F7702C084B58F7D52
:1028100084BD08958091B0008F7703C08091B0008F
:102820008F7D8093B0000895CF93DF9390E0FC01FB
:10283000EB5AFD4F2491FC01E759FD4F8491882309
:1028400049F190E0880F991FFC01E957FD4FA591D0
:10285000B49183589D4FFC01C591D4919FB76111EC
:1028600008C0F8948C91209582238C9388818223D0
:102870000AC0623051F4F8948C91322F3095832342
:102880008C938881822B888304C0F8948C91822B4E
:102890008C939FBFDF91CF9108950F931F93CF9398
:1028A000DF931F92CDB7DEB7282F30E0F901EF5B41
:1028B000FD4F8491F901EB5AFD4F1491F901E7594D
:1028C000FD4F04910023C9F0882321F069830E9401
:1028D000EB136981E02FF0E0EE0FFF1FE358FD4F8F
:1028E000A591B4919FB7F8948C91611103C0109594
:1028F000812301C0812B8C939FBF0F90DF91CF91DB
:102900001F910F910895FC01818D228D90E0805CD4
:102910009F4F821B91098F7399270895FC01918D18
:10292000828D981731F0828DE80FF11D858D90E032
:1029300008958FEF9FEF0895FC01918D828D981778
:1029400061F0828DDF01A80FB11D5D968C91928D93
:102950009F5F9F73928F90E008958FEF9FEF089590
:1029600080E296E1892B49F080E090E0892B29F004
:102970000E94201681110C9400000895FC01848DA2
:10298000DF01A80FB11DA35ABF4F2C91848D90E099
:1029900001968F739927848FA689B7892C93A08974
:1029A000B1898C9180648C93938D848D981306C02B
:1029B0000288F389E02D80818F7D80830895CF93F5
:1029C000DF93EC01888D8823C9F0EA89FB89808137
:1029D00085FD05C0A889B9898C9186FD0FC00FB609
:1029E00007FCF5CF808185FFF2CFA889B9898C914A
:1029F00085FFEDCFCE010E94BE14E7CFDF91CF91CE
:102A00000895CF92DF92FF920F931F93CF93DF939E
:102A10001F92CDB7DEB76C0181E0D60158968C933A
:102A200058975B969C915B975C968C915C979813FA
:102A300007C05096ED91FC915197808185FD2EC085
:102A4000F601038D10E00F5F1F4F0F731127F02E5B
:102A5000F601848DF81211C00FB607FCF9CFD6012C
:102A60005096ED91FC915197808185FFF1CFC60181
:102A700069830E94BE146981EBCF838DE80FF11D3D
:102A8000E35AFF4F6083D6015B960C935B97529697
:102A9000ED91FC915397808180620CC0D6015696CF
:102AA000ED91FC91579760835096ED91FC91519771
:102AB00080818064808381E090E00F90DF91CF91EE
:102AC0001F910F91FF90DF90CF900895BF92CF920A
:102AD000DF92EF92FF92CF93DF93EC016A017B01CB
:102AE000B22EE889F98982E08083411581EE58078A
:102AF00061057105A1F060E079E08DE390E0A70148
:102B000096010E94B91B215031094109510956957E
:102B1000479537952795211580E1380798F0E88982
:102B2000F989108260E874E88EE190E0A7019601CF
:102B30000E94B91B21503109410951095695479509
:102B400037952795EC85FD853083EE85FF852083BD
:102B5000188EEC89FD89B082EA89FB8980818061C9
:102B60008083EA89FB89808188608083EA89FB8988
:102B7000808180688083EA89FB8980818F7D808362
:102B8000DF91CF91FF90EF90DF90CF90BF900895AD
:102B90001F920F920FB60F9211242F938F939F9332
:102BA000EF93FF93E0915402F09155028081E09100
:102BB0005A02F0915B0282FD12C0908180915D0209
:102BC0008F5F8F7320915E02821751F0E0915D025A
:102BD000F0E0EC5BFD4F958F80935D0201C080813A
:102BE000FF91EF919F918F912F910F900FBE0F90BA
:102BF0001F9018951F920F920FB60F9211242F93CA
:102C00003F934F935F936F937F938F939F93AF9374
:102C1000BF93EF93FF9384E492E00E94BE14FF9170
:102C2000EF91BF91AF919F918F917F916F915F9144
:102C30004F913F912F910F900FBE0F901F901895BD
:102C400084E492E00E94831421E0892B09F420E0BF
:102C5000822F0895109247021092460288EE93E068
:102C6000A0E0B0E08093480290934902A0934A020A
:102C7000B0934B0285E491E0909345028093440227
:102C800085EC90E0909351028093500284EC90E0A8
:102C9000909353028093520280EC90E090935502FF
:102CA0008093540281EC90E09093570280935602F7
:102CB00082EC90E0909359028093580286EC90E069
:102CC00090935B0280935A0210925D0210925E0212
:102CD00010925F02109260020895CF92DF92EF92FD
:102CE000FF920F931F93CF93DF937C016A01EB0157
:102CF00000E010E00C151D0571F06991D701ED9110
:102D0000FC910190F081E02DC7010995892B19F004
:102D10000F5F1F4FEFCFC801DF91CF911F910F9130
:102D2000FF90EF90DF90CF9008956115710581F0CD
:102D3000DB010D900020E9F7AD0141505109461B20
:102D4000570BDC01ED91FC910280F381E02D099499
:102D500080E090E00895EF92FF920F931F93CF933E
:102D6000DF938C017B01C0E0D0E0F701EC0FFD1F89
:102D70006491662359F0F801A081B181ED91FC9135
:102D8000C8010995892B11F02196EFCFCE01DF9173
:102D9000CF911F910F91FF90EF9008950C9495168D
:102DA000DC01ED91FC910190F081E02D099461E549
:102DB00071E00C9495160F931F93CF93DF93EC0162
:102DC0000E94AB168C01CE010E94D716800F911F76
:102DD000DF91CF911F910F9108950F931F93CF9380
:102DE000DF93EC010E9495168C01CE010E94D7164C
:102DF000800F911FDF91CF911F910F9108958F92B6
:102E00009F92AF92BF92DF92EF92FF920F931F9328
:102E1000CF93DF93CDB7DEB7A1970FB6F894DEBF9F
:102E20000FBECDBF7C01F42FD52ECB0119A22230CD
:102E300008F42AE08E010F5D1F4F822E912CA12CE9
:102E4000B12C6F2F7D2DA50194010E94B91BF22F8B
:102E5000D32ECA01015011096A3014F4E0E301C015
:102E6000E7E3E60FD801EC93232B242B252B49F71E
:102E7000B801C7010E949516A1960FB6F894DEBF5F
:102E80000FBECDBFDF91CF911F910F91FF90EF90BB
:102E9000DF90BF90AF909F908F900895CF92DF9278
:102EA000EF92FF920F931F93CF93DF93EC016A0190
:102EB0007B012115310579F4E881F9810190F081D8
:102EC000E02D642FDF91CF911F910F91FF90EF9034
:102ED000DF90CF9009942A303105E9F477FF1AC0CA
:102EE0006DE20E94D0168C0144275527BA014C1977
:102EF0005D096E097F092AE0CE010E94FF16800F4E
:102F0000911FDF91CF911F910F91FF90EF90DF9074
:102F1000CF9008952AE0B701A601CE01DF91CF91AD
:102F20001F910F91FF90EF90DF90CF900C94FF16C0
:102F30000F931F93CF93DF93EC010E944E178C01E8
:102F4000CE010E94D716800F911FDF91CF911F9164
:102F50000F9108954F925F926F927F928F929F92FE
:102F6000AF92BF92CF92DF92EF92FF920F931F9397
:102F7000CF93DF93EC016A017B01B22E9A01AB0182
:102F8000C701B6010E945C1B882319F064E571E05B
:102F900027C026013701E89477F82FEF3FEF4FE77E
:102FA0005FE7C301B2010E945C1B81110DC02FEFCE
:102FB0003FEF4FE75FE7C301B2010E9464191816A3
:102FC0001CF468E571E00CC02FEF3FEF4FE75FE4C2
:102FD000C701B6010E94B31A1816ACF46CE571E093
:102FE000CE01DF91CF911F910F91FF90EF90DF9075
:102FF000CF90BF90AF909F908F907F906F905F9099
:103000004F900C9495162FEF3FEF4FE75FECC70101
:10301000B6010E94641987FDE1CF20E030E0A901EC
:10302000C701B6010E94641987FF0AC06DE2CE0194
:103030000E94D0168C01F7FAF094F7F8F09402C0D1
:1030400000E010E0A12C60E070E080E09FE3AB14B2
:1030500041F020E030E040E251E40E946819A3947E
:10306000F6CF9B01AC01C701B6010E9400196B01AC
:103070007C010E94D5192B013C010E94011A9B0181
:10308000AC01C701B6010E94FF186B017C012AE068
:10309000B301A201CE010E94FF16080F191FBB2029
:1030A00039F060E671E0CE010E949516080F191FF5
:1030B0007B2C772041F120E030E040E251E4C70171
:1030C000B6010E94B71A6B017C010E94D0194B0116
:1030D000AA2497FCA094BA2C2AE030E0B501A40100
:1030E000CE010E944E17080F191FC501B4010E949E
:1030F000031A9B01AC01C701B6010E94FF186B01C6
:103100007C017A94D6CFC801DF91CF911F910F91A6
:10311000FF90EF90DF90CF90BF90AF909F908F90F7
:103120007F906F905F904F9008950F931F93CF9370
:10313000DF93EC010E94AA178C01CE010E94D716E2
:10314000800F911FDF91CF911F910F9108954F92A2
:103150005F926F927F92AF92BF92CF92DF92EF9287
:10316000FF920F931F93CF93DF93CDB7DEB7290163
:103170003A01621B730B840B950B29893A894B89A1
:103180005C892A193B094C095D09298B3A8B4B8BC9
:103190005C8B9B01AC0169897A898B899C890E942F
:1031A000751BE418F50806091709A80197010E9484
:1031B000DB1B2A0D3B1D4C1D5D1DCA01B901DF91B2
:1031C000CF911F910F91FF90EF90DF90CF90BF9024
:1031D000AF907F906F905F904F90089508950E94F8
:1031E000B0130E94EE180E94340AC0EBD4E10E9492
:1031F000570A2097E1F30E94B014F9CF0895505870
:10320000BB27AA270ED075C166D130F06BD120F054
:1032100031F49F3F11F41EF45BC10EF4E095E7FB1F
:1032200051C1E92F77D180F3BA176207730784077A
:10323000950718F071F49EF58FC10EF4E0950B2EF2
:10324000BA2FA02D0B01B90190010C01CA01A001F8
:103250001124FF27591B99F0593F50F4503E68F153
:103260001A16F040A22F232F342F4427585FF3CF94
:10327000469537952795A795F0405395C9F77EF465
:103280001F16BA0B620B730B840BBAF09150A1F0AE
:10329000FF0FBB1F661F771F881FC2F70EC0BA0F34
:1032A000621F731F841F48F4879577956795B795BC
:1032B000F7959E3F08F0B3CF9395880F08F09927B4
:1032C000EE0F979587950895D9D008F481E0089579
:1032D0000CD00FC107D140F0FED030F021F45F3F99
:1032E00019F0F0C0511139C1F3C014D198F39923EA
:1032F000C9F35523B1F3951B550BBB27AA276217BA
:103300007307840738F09F5F5F4F220F331F441FFE
:10331000AA1FA9F333D00E2E3AF0E0E830D0915036
:103320005040E695001CCAF729D0FE2F27D0660F23
:10333000771F881FBB1F261737074807AB07B0E862
:1033400009F0BB0B802DBF01FF2793585F4F2AF078
:103350009E3F510568F0B6C000C15F3FECF3983E58
:10336000DCF3869577956795B795F7959F5FC9F7D5
:10337000880F911D9695879597F90895E1E0660F5E
:10338000771F881FBB1F621773078407BA0720F0D7
:10339000621B730B840BBA0BEE1F88F7E095089540
:1033A00004D06894B111D9C00895BCD088F09F575B
:1033B00090F0B92F9927B751A0F0D1F0660F771F81
:1033C000881F991F1AF0BA95C9F712C0B13081F061
:1033D000C3D0B1E00895C0C0672F782F8827B85FA9
:1033E00039F0B93FCCF3869577956795B395D9F7C2
:1033F0003EF490958095709561957F4F8F4F9F4FCC
:103400000895E89409C097FB3EF4909580957095D7
:1034100061957F4F8F4F9F4F9923A9F0F92F96E920
:10342000BB279395F695879577956795B795F11195
:10343000F8CFFAF4BB0F11F460FF1BC06F5F7F4F32
:103440008F4F9F4F16C0882311F096E911C0772344
:1034500021F09EE8872F762F05C0662371F096E84D
:10346000862F70E060E02AF09A95660F771F881F1C
:10347000DAF7880F9695879597F90895990F0008C0
:10348000550FAA0BE0E8FEEF16161706E807F90736
:10349000C0F012161306E407F50798F0621B730BD1
:1034A000840B950B39F40A2661F0232B242B252B52
:1034B00021F408950A2609F4A140A6958FEF811DF5
:1034C000811D089597F99F6780E870E060E0089596
:1034D0009FEF80EC089500240A941616170618062C
:1034E0000906089500240A94121613061406050608
:1034F0000895092E0394000C11F4882352F0BB0F99
:1035000040F4BF2B11F460FF04C06F5F7F4F8F4FFB
:103510009F4F089557FD9058440F551F59F05F3F36
:1035200071F04795880F97FB991F61F09F3F79F0E5
:1035300087950895121613061406551FF2CF469567
:10354000F1DF08C0161617061806991FF1CF8695E9
:103550007105610508940895E894BB2766277727CD
:10356000CB0197F908958ADF08F48FEF08950BD007
:10357000C0CFB1DF28F0B6DF18F0952309F0A2CF55
:10358000A7CF1124EACFC6DFA0F3959FD1F3950F03
:1035900050E0551F629FF001729FBB27F00DB11DD7
:1035A000639FAA27F00DB11DAA1F649F6627B00D67
:1035B000A11D661F829F2227B00DA11D621F739F50
:1035C000B00DA11D621F839FA00D611D221F749F5E
:1035D0003327A00D611D231F849F600D211D822FA5
:1035E000762F6A2F11249F5750408AF0E1F08823EC
:1035F0004AF0EE0FFF1FBB1F661F771F881F9150F9
:103600005040A9F79E3F510570F05CCFA6CF5F3FB9
:10361000ECF3983EDCF3869577956795B795F7952B
:10362000E7959F5FC1F7FE2B880F911D96958795B3
:1036300097F9089511F40EF44BCF42C073DFD0F325
:103640009923D9F3CEF39F57550B87FF47D000241A
:10365000A0E640EA900180585695979528F4805C42
:10366000660F771F881F20F026173707480730F4AA
:10367000621B730B840B202931294A2BA6951794C2
:103680000794202531254A2758F7660F771F881F92
:1036900020F026173707480730F4620B730B840BB2
:1036A000200D311D411DA09581F7B901842F91583E
:1036B000880F969587950895E1DE880B990B0895FC
:1036C0009F3F31F0915020F4879577956795B79596
:1036D000880F911D9695879597F9089591505040C0
:1036E000660F771F881FD2F70895DB018F939F9392
:1036F0000E94001CBF91AF91A29F800D911DA39FBE
:10370000900DB29F900D11240895991B79E004C08B
:10371000991F961708F0961B881F7A95C9F7809510
:103720000895AA1BBB1B51E107C0AA1FBB1FA61708
:10373000B70710F0A61BB70B881F991F5A95A9F75A
:1037400080959095BC01CD01089597FB072E16F446
:10375000009407D077FD09D00E94911B07FC05D08B
:103760003EF4909581959F4F0895709561957F4F98
:103770000895A1E21A2EAA1BBB1BFD010DC0AA1FB2
:10378000BB1FEE1FFF1FA217B307E407F50720F0CA
:10379000A21BB30BE40BF50B661F771F881F991F45
:1037A0001A9469F760957095809590959B01AC018E
:1037B000BD01CF010895052E97FB1EF400940E94D1
:1037C000F21B57FD07D00E94B91B07FC03D04EF433
:1037D0000C94F21B50954095309521953F4F4F4FDB
:1037E0005F4F089590958095709561957F4F8F4FAD
:1037F0009F4F0895EE0FFF1F0590F491E02D09945F
:103800000E940B1CA59F900DB49F900DA49F800D4E
:10381000911D11240895A29FB001B39FC001A39FE1
:10382000700D811D1124911DB29F700D811D1124F9
:10383000911D0895CF93DF938230910510F482E0BB
:1038400090E0E091E302F091E40220E030E0A0E0BB
:10385000B0E0309739F14081518148175907B8F0ED
:103860004817590771F482819381109729F01396B4
:103870009C938E9312972CC09093E4028093E30262
:1038800027C02115310531F04217530718F0A9015F
:10389000DB0101C0EF019A01BD01DF010280F3816C
:1038A000E02DD7CF21153105F9F0281B390B243035
:1038B000310580F48A819B816115710521F0FB013E
:1038C0009383828304C09093E4028093E302FE0119
:1038D000329644C0FE01E20FF31F81939193225070
:1038E0003109398328833AC02091E1023091E20204
:1038F000232B41F420910201309103013093E20225
:103900002093E10220910001309101012115310540
:1039100041F42DB73EB74091040150910501241B9D
:10392000350BE091E102F091E202E217F307A0F417
:103930002E1B3F0B2817390778F0AC014E5F5F4F05
:103940002417350748F04E0F5F1F5093E202409353
:10395000E1028193919302C0E0E0F0E0CF01DF91BA
:10396000CF910895CF93DF93009709F487C0FC01AE
:10397000329713821282C091E302D091E402209721
:1039800081F420813181280F391F8091E1029091CB
:10399000E2028217930779F5F093E202E093E102E5
:1039A0006DC0DE0120E030E0AE17BF0750F4129684
:1039B0004D915C9113979D014115510509F1DA0173
:1039C000F3CFB383A28340815181840F951F8A175F
:1039D0009B0771F48D919C911197840F951F02960E
:1039E0009183808312968D919C9113979383828308
:1039F0002115310529F4F093E402E093E3023EC07F
:103A0000D9011396FC93EE9312974D915D91A40FFB
:103A1000B51FEA17FB0779F480819181840F951F08
:103A20000296D90111969C938E938281938113966D
:103A30009C938E931297E0E0F0E08A819B8100973F
:103A400019F0FE01EC01F9CFCE01029628813981EF
:103A5000820F931F2091E1023091E202281739076B
:103A600069F4309729F41092E4021092E30202C044
:103A700013821282D093E202C093E102DF91CF91D0
:103A80000895A0E0B0E0E7E4FDE10C94051F8B0190
:103A90006115710521F0DB018C9311969C93EC016B
:103AA0005E01BFEFAB1ABB0A7501C8808C2D90E098
:103AB0000E94C21E892B11F0E501F2CFEDE2CE1279
:103AC00008C07E01F2E0EF0EF11CC980DD24D39422
:103AD00009C02BE2C21205C07E0142E0E40EF11CD7
:103AE000C980D12CE701219743E050E069E972E0F9
:103AF000CE010E94CA1E892BC1F4239645E050E0F6
:103B000064E972E0CE010E94CA1E892B09F4259651
:103B10000115110519F0D801CD93DC93D11006C120
:103B200060E070E080E89FE70AC143E050E061E9AF
:103B300072E0CE010E94CA1E892B59F401151105AD
:103B400009F4F9C0B2E0EB0EF11CF801F182E08259
:103B5000F2C0F70160E070E0CB01C0E0D0E07F018F
:103B6000A0EDAA2EAC0C29E02A1530F14D2D4260B3
:103B7000B42E2D2D2870D2FE04C0211125C021960F
:103B800023C021112197A5E0B0E09B01AC010E9468
:103B9000001C660F771F881F991F6A0D711D811DFC
:103BA000911D6839A9E97A078A07A9E19A0760F0A7
:103BB000BD2DB660BB2E08C02EEFA2120AC0D3FCEA
:103BC00050C04D2D4860B42E3196D701CC90DB2CDF
:103BD000C6CF2C2D2F7D253409F043C0A081AD32F6
:103BE00041F4BD2DB061DB2E7F0122E0E20EF11C1D
:103BF0000CC07F01AB3231F04FEFE41AF40A21E040
:103C000030E006C0A2E0EA0EF11CA18122E030E023
:103C1000A053AA3018F0E21AF30A23C0F70120E0FB
:103C200030E02038BCE03B075CF4A901440F551F8D
:103C3000440F551F240F351F220F331F2A0F311D2C
:103C4000AF014F5F5F4F7A01A081A053AA3010F4FB
:103C5000FA01E7CFD4FE03C0319521953109C20F97
:103C6000D31FD1FE09C00115110531F0E1E0EE1AB4
:103C7000F108D801ED92FC920E94011A2D2D2370BB
:103C8000233019F04B015C0106C04B015C01B7FA0F
:103C9000B094B7F8B09420E030E0A901C501B401B8
:103CA0000E946419882309F43EC0D7FF06C0D1954D
:103CB000C195D10900EB12E002C008EC12E06801E6
:103CC000B8E1CB1AD10890E2E92EF12CCE15DF0530
:103CD00074F0F8012591359145915491C501B401D5
:103CE0000E94B71A4B015C01CE19DF09EFCF0450D7
:103CF0001109F594E7940C151D0541F78A2D880FDD
:103D00008B2D881F8F3F49F020E030E0A901C501CD
:103D1000B4010E946419811106C082E290E0909380
:103D2000E6028093E502C501B40109C060E070E0DD
:103D300080E89FEF04C060E070E080EC9FE7CDB7C3
:103D4000DEB7ECE00C94211FFC0188279927E8944A
:103D500021912032E9F3293010F02E30C8F32B32B4
:103D600041F02D3239F4689404C00E94F41E820F91
:103D7000911D219120532A30C0F31EF49095819516
:103D80009F4F0895911138C0803219F089508550A5
:103D9000D0F70895FB01DC014150504088F08D912F
:103DA00081341CF08B350CF4805E659161341CF01D
:103DB0006B350CF4605E861B611171F3990B0895ED
:103DC000881BFCCFDC0101C06D9341505040E0F7EF
:103DD0000895FC018191861721F08823D9F799274E
:103DE00008953197CF0108957AE0979F902D879F8E
:103DF000802D910D112408959927882708952F92D9
:103E00003F924F925F926F927F928F929F92AF926A
:103E1000BF92CF92DF92EF92FF920F931F93CF93B7
:103E2000DF93CDB7DEB7CA1BDB0B0FB6F894DEBF4E
:103E30000FBECDBF09942A88398848885F846E8474
:103E40007D848C849B84AA84B984C884DF80EE80BE
:103E5000FD800C811B81AA81B981CE0FD11D0FB6C7
:103E6000F894DEBF0FBECDBFED01089512E0C4EDA2
:103E7000D2E004C0FE010E94FC1B2296C63DD10781
:063E8000C9F7F894FFCF22
:103E86000000E70280000100000000401C460A0016
:103E9600000000006E03870364029501E202A80297
:103EA600F80219034D03D9012F02762E323031372D
:103EB60030373233004142530052454C00540046DD
:103EC600000000000001156D1683149C148E14DF8B
:103ED600140D0A006E616E00696E66006F766600EC
:023EE6002E00AC
:00000001FF
