:100000000C9484010C94AC010C94AC010C94AC01E4
:100010000C94AC010C94AC010C94AC010C94AC01AC
:100020000C94AC010C94AC010C94AC010C94331105
:100030000C94AC010C94AC010C94AC010C94AC018C
:100040000C9427130C94AC010C94F1150C9423160A
:100050000C94AC010C94AC010C94AC010C94AC016C
:100060000C94AC010C94AC01BC01C301CA01D101D8
:10007000D801EF01DF01EF01E6015F0263026702D1
:100080006B026F02730277029B0C9B0C7A0C130DB0
:100090009B0CB80C0E0D110D3E00424144434845E7
:1000A000434B53554D20004241444C494E454E551B
:1000B0004D20004D3330303B202D20496E666F724D
:1000C0006D61206C6F732062617564696F73206469
:1000D0006520636F6D756E69636163696F6E207310
:1000E00065726965004D3131343B202D2072657099
:1000F0006F727420706F736974696F6E20616E64C3
:10010000206665656472617465004D3130303B2056
:100110002D20746869732068656C70206D65737339
:10012000616765004D32323B202D207475726E2060
:100130007269676874206C61736572206F6666000F
:100140004D32313B202D207475726E2072696768C4
:1001500074206C61736572206F6E004D32303B20ED
:100160002D207475726E206C656674206C617365E9
:1001700072206F6666004D31393B202D20747572F8
:100180006E206C656674206C61736572206F6E0002
:100190004D31383B202D2064697361626C65206DA0
:1001A0006F746F7273004D31373B202D20656E6187
:1001B000626C65206D6F746F727300473035205B21
:1001C0004428677261646F73295D3B202D20617044
:1001D000756E7461204F6A6F20706F6E6572206556
:1001E00073706163696F20656E7472652044207955
:1001F0002064697200473031205B54287374657045
:1002000073295D205B4C287374657073295D205BD6
:1002100046286665656472617465295D3B202D2002
:100220006D6F766500473030205B542873746570BD
:1002300073295D3B202D206C696E656172206D6FA6
:10024000766500436F6D6D616E64733A004661625E
:100250005363616E20472D434F44444520496E74DB
:1002600065727072657465722056657273696F6E1F
:100270003A2000000000080002010000030407000B
:10028000000000000000000102040810204080016E
:1002900002040810200102040810200404040404CD
:1002A0000404040202020202020303030303030024
:1002B000000000250028002B00000000002400277B
:1002C000002A004E414E494E495459494E46CDCC24
:1002D000CC3D0AD7233C17B7D13877CC2B32959534
:1002E000E6241FB14F0A000020410000C842004030
:1002F0001C4620BCBE4CCA1B0E5AAEC59D74720A69
:10030000B80D20115316C10D11241FBECFEFD8E038
:10031000DEBFCDBF11E0A0E0B1E0ECE2F4E402C04A
:1003200005900D92AC36B107D9F722E0ACE6B1E00A
:1003300001C01D92A13FB207E1F712E0C6E0D3E091
:1003400004C02297FE010E94791DCE3FD107C9F754
:100350000E946C1A0C9409220C9400000F931F93B6
:10036000DC0112960C9110E009301105C0F5F8017E
:10037000EC5CFF4F0C94771DDC01ED91FC91008447
:10038000F185E02D29C0DC01ED91FC910284F3851B
:10039000E02D22C0DC01ED91FC910484F585E02D77
:1003A0001BC0DC01ED91FC910684F785E02D14C0A3
:1003B000DC01ED91FC910088F189E02D0DC0DC019C
:1003C000ED91FC910288F389E02D06C0DC01ED91EE
:1003D000FC910488F589E02D1F910F9109941F91DC
:1003E0000F910895CF93DF93EC01CB01BA0126E082
:1003F00030E040E050E00E94581D623071058105F8
:10040000910559F18CF46115710581059105F1F0A3
:100410006130710581059105C1F5E881F98104809C
:10042000F581E02D65E02DC06430710581059105F1
:1004300011F1D4F0653071058105910531F5E88140
:10044000F9810480F581E02D66E01BC0E881F98127
:100450000480F581E02D64E014C0E881F981048016
:10046000F581E02D61E00DC0E881F9810480F5811E
:10047000E02D63E006C0E881F9810480F581E02D7C
:1004800062E0CE01DF91CF910994DF91CF91089581
:10049000CF93DF934770552766277727415051093F
:1004A000DC01CD91DC914730510528F4435C5F4F6E
:1004B000FA010C94771DEC81FD8161E01BC0EC8199
:1004C000FD8165E017C0EC81FD8164E013C0EC8123
:1004D000FD8166E00FC0EC81FD8162E00BC0EC8124
:1004E000FD816AE007C0EC81FD8168E003C0EC811A
:1004F000FD8169E0DF91CF910994AF92BF92DF92C5
:10050000EF92FF920F931F93CF93DF931F92CDB77C
:10051000DEB78C01FC018281843041F0883031F0FB
:10052000833031F0863021F022E003C024E001C0A6
:1005300023E0A12CB12CE62EF12CDD24D394F8017C
:10054000EA0DFB1DC7010A2C02C0959587950A94F8
:10055000E2F7678180FD6D25838129830E947614EF
:10056000FFEFAF1ABF0A2981A21648F30F90DF915F
:10057000CF911F910F91FF90EF90DF90BF90AF90C0
:1005800008950F931F93CF93DF93EC01E881F981D6
:100590000480F581E02D8C010D5B1F4FD8018C91FB
:1005A000882311F062E001C060E0CE010995E88186
:1005B000F9810480F581E02DD8018C91882311F018
:1005C00063E001C061E0CE0109958BA59CA50E9466
:1005D000CE13E881F9810480F581E02DD8018C915A
:1005E000882311F062E001C060E0CE01DF91CF917D
:1005F0001F910F910994CF93DF93EC0120E030E03D
:10060000A9016B897C898D899E890E94301C1816EE
:100610001CF4EFA5F8A902C0E9A9FAA9DF91CF91CE
:1006200009944370552766277727DC01ED91FC91EB
:100630000480F581E02D423051056105710571F0AE
:10064000433051056105710559F04130510561058F
:10065000710511F062E005C063E003C061E001C014
:1006600060E00994CF93DF93EC01CB01BA0123E062
:1006700030E040E050E00E94581D61307105810576
:10068000910581F0623071058105910591F0672B2C
:10069000682B692BC1F4E881F9810480F581E02D94
:1006A00064E00DC0E881F9810480F581E02D61E00E
:1006B00006C0E881F9810480F581E02D62E0CE0179
:1006C000DF91CF910994DF91CF9108954370552721
:1006D00066277727DC01ED91FC910480F581E02D00
:1006E000423051056105710571F0433051056105D6
:1006F000710559F0413051056105710511F065E052
:1007000005C066E003C06AE001C069E00994CF93C8
:10071000DF93EC018A81882381F0E881F9810480EC
:10072000F581E02D60E0CE0109958EA58F3F29F07F
:100730006DA5DF91CF910C947614DF91CF91089540
:10074000CF93DF93EC018A81882351F161E08B81A3
:100750000E943D1461E08C810E943D148A818430A6
:1007600011F0883039F461E08D810E943D1461E020
:100770008E8106C0833011F0863021F461E08D81D6
:100780000E943D148EA58F3F59F061E00E943D14F8
:100790006DA581E068278EA5DF91CF910C9476142A
:1007A000DF91CF910895CF92DF92EF92FF920F9356
:1007B0001F93CF93DF93EC014BA15CA16DA17EA1B0
:1007C000452B462B472B09F44DC00E9471136B013A
:1007D0007C010FA118A529A53AA54BA15CA16DA18B
:1007E0007EA1400F511F621F731F40175107620700
:1007F000730730F0C416D506E606F70658F405C0B0
:10080000C416D506E606F70668F1C016D106E2065C
:10081000F30640F5FE01ED5BFF4F80814B855C8563
:100820006D857E85882329F04F5F5F4F6F4F7F4F27
:1008300004C041505109610971094B875C876D877C
:100840007E87E881F9814B855C856D857E85068094
:10085000F781E02DCE010995CFA2D8A6E9A6FAA688
:1008600081E001C080E0DF91CF911F910F91FF9057
:10087000EF90DF90CF9008950F931F93FC01678551
:100880007089818992890385148525853685601B49
:10089000710B820B930B1F910F9108952F923F9232
:1008A0004F925F926F927F928F929F92AF92BF9280
:1008B000CF92DF92EF92FF920F931F93CF93DF932C
:1008C00000D000D0CDB7DEB71C01FC018784908832
:1008D000A188B28883859485A585B685881A990AEA
:1008E000AA0ABB0A63897489858996899B01AC0130
:1008F0000E94341C6B017C01F101638D748D858D28
:10090000968D9B01AC010E947D1A9B01AC01C70131
:10091000B6010E94E51A0E944D1B81149104A104A6
:10092000B104A1F462307105810591050CF07CC021
:10093000F10113A214A215A216A2138A148A158A11
:10094000168A13AA14AA15AA16AA03C1F10103A9AB
:1009500014A925A936A9ED5BFF4F181419041A0430
:100960001B04FCF410161106120613064CF468154D
:1009700079058A059B054CF52081211155C025C0BC
:10098000011511052105310509F44EC068157905D9
:100990008A059B050CF048C08081882309F444C077
:1009A00037C01016110612061306F4F4002711279B
:1009B0009801081919092A093B096017710782076C
:1009C00093071CF42081222379F19B01AC01882735
:1009D0009927DC01821B930BA40BB50BF10183ABB0
:1009E00094ABA5ABB6AB20C00115110521053105AF
:1009F000D9F0CC24DD247601C818D908EA08FB0810
:100A00006C157D058E059F057CF4808181110CC0DD
:100A100030952095109501951F4F2F4F3F4FF101B5
:100A200003AB14AB25AB36ABF101C3A8D4A8E5A842
:100A3000F6A881010D5B1F4FC114D104E104F1043C
:100A400091F487A990ADA1ADB2AD83AF94AFA5AF3E
:100A5000B6AF81E0181419041A041B040CF080E0EE
:100A6000F801808340C0F10183AC94ACA5ACB6AC76
:100A7000A5019401C501B4010E947D1A2B013C011E
:100A8000C701B6010E94801B20E030E040E850E43E
:100A90000E94341C20E030E040E85FE30E947D1AB1
:100AA0009B01AC01C301B2010E94E51A9B01AC019C
:100AB000C501B4010E947C1A2B013C01F101FF9693
:100AC00080809180A280B3809401A5010E94301C97
:100AD000181614F442015301C401D501F10183AF8A
:100AE00094AFA5AFB6AFFFEFCF1ADF0AEF0AFF0A48
:100AF000F101C3AAD4AAE5AAF6AA23AD34AD45AD47
:100B000056ADCA01B90129833A834B835C830E94A5
:100B1000521BF10163A374A385A396A329813A8193
:100B20004B815C8160E074E284E799E40E94E51AFD
:100B3000F101638B748B858B968BF80120812111D9
:100B400008C0DC01CB01B058F101838B948BA58BDD
:100B5000B68B0F900F900F900F90DF91CF911F9158
:100B60000F91FF90EF90DF90CF90BF90AF909F904C
:100B70008F907F906F905F904F903F902F9008954F
:100B80000F931F93FC01078510892189328904176F
:100B900015072607370741F04787508B618B728B0B
:100BA0001F910F910C944E041F910F9108950F9374
:100BB0001F93FC010385148525853685400F511F41
:100BC000621F731F1F910F910C94C0054F925F928B
:100BD0006F927F928F929F92AF92BF92CF92DF924D
:100BE000EF92FF92CF93DF93EC016A017B018B8C34
:100BF0009C8CAD8CBE8C9A01AB01C501B4010E94E6
:100C0000E11A882309F449C06BA97CA98DA99EA982
:100C10000E94801B2B013C01A7019601C501B40174
:100C20000E94E51A9B01AC01C301B2010E94341C71
:100C30000E944D1B6BAB7CAB8DAB9EABA7019601AD
:100C400060E070E080E090E40E94E51A0E949B1C46
:100C500026E53EE04DE25FE30E94341C20E034E2F2
:100C600044E759E40E94341C6FAB78AF89AF9AAF68
:100C7000CB8EDC8EED8EFE8ECE01DF91CF91FF907C
:100C8000EF90DF90CF90BF90AF909F908F907F902C
:100C90006F905F904F900C944E04DF91CF91FF9036
:100CA000EF90DF90CF90BF90AF909F908F907F900C
:100CB0006F905F904F9008950F931F93CF93DF93A2
:100CC000EC010E94D303882319F0CE010E944E0448
:100CD00020E030E0A9016B897C898D899E890E9482
:100CE000E11A811110C081E00F85188929893A899C
:100CF0004B855C856D857E850417150726073707AC
:100D000019F480E001C081E0DF91CF911F910F9134
:100D100008958F929F92AF92BF92CF92EF920F93CE
:100D2000CF93DF93EC0184E191E0998388836A8318
:100D30001B861C861D861E861F86188A198A1A8A9B
:100D40001B8A1C8A1D8A1E8A812C912C80E8A82E61
:100D50008FE3B82E8F8A988EA98EBA8E1B8E1C8E2A
:100D60001D8E1E8E8F8E98A2A9A2BAA21BA21CA2B3
:100D70001DA21EA281E090E09CA78BA78FEF8EA7FB
:100D80001FA218A619A61AA64B832C830D83EE82E8
:100D90001BAA1CAA1DAA1EAA1FAA18AE19AE1AAE1B
:100DA0001BAE1CAE1DAE1EAEFE01FF968082918270
:100DB000A282B382349610821F82188619861A8600
:100DC000CC2019F0CE010E94A00340E050E060E882
:100DD0007FE3CE01DF91CF910F91EF90CF90BF9045
:100DE000AF909F908F900C94E605CF92DF92EF9298
:100DF000FF920F931F93CF93DF93EC016A017B0166
:100E00009A01AB016F89788D898D9A8D0E94E11AC4
:100E1000882309F446C0CF8AD88EE98EFA8E8E01D7
:100E2000015C1F4FA701960160E074E284E799E43A
:100E30000E94E51AF80160837183828393838BA9F2
:100E40009CA9ADA9BEA9181619061A061B064CF5D1
:100E50006B897C898D899E899B01AC010E94341C21
:100E60006B017C016B8D7C8D8D8D9E8D9B01AC010A
:100E70000E947D1A9B01AC01C701B6010E94E51AD0
:100E80000E944D1B6BAB7CAB8DAB9EABCE01DF915B
:100E9000CF911F910F91FF90EF90DF90CF900C9426
:100EA0004E04DF91CF911F910F91FF90EF90DF9053
:100EB000CF900895CF92DF92EF92FF92CF93DF937E
:100EC000EC016A017B0120E030E0A901C701B60115
:100ED0000E94E11A882359F0B701A601CE01DF91E3
:100EE000CF91FF90EF90DF90CF900C94E605DF91CB
:100EF000CF91FF90EF90DF90CF9008956F927F9207
:100F00008F929F92AF92BF92CF92DF92EF92FF9219
:100F10000F931F93CF93DF93EC013A018B012B8941
:100F20003C894D895E89B301C8010E94E11A88237A
:100F300009F454C0CF88D88CE98CFA8C460157014B
:100F4000B7FAB094B7F8B094A5019401B301C80101
:100F50000E94E11A87FD0BC0A7019601B301C801E9
:100F60000E94301C18162CF43601870102C034018F
:100F7000850120E030E0A901B301C8010E94E11A17
:100F8000811105C01BA21CA21DA21EA221C093019B
:100F9000A80160E074E284E799E40E94E51A9F7773
:100FA0000E94521B6BA37CA38DA39EA37E0183E4AE
:100FB000E80EF11CDD24D39420E030E0A901B30158
:100FC000C8010E94301C18160CF0D12CF701D082F9
:100FD000C301D8018B8B9C8BAD8BBE8BDF91CF91E6
:100FE0001F910F91FF90EF90DF90CF90BF90AF9047
:100FF0009F908F907F906F900895CF93DF93EC0137
:10100000CE010E945C068111FBCFDF91CF91089544
:101010000F931F93FC01078510892189328943852D
:10102000548565857685041715072607370779F0F7
:10103000ED5BFF4F40175107620773071CF421E077
:10104000208301C010821F910F910C94D30380E084
:101050001F910F910895CF93DF93EC0188859985B7
:10106000009711F00E942F1E8E8187FD05C060E061
:10107000DF91CF910C943D14DF91CF910895CF93E0
:10108000DF93EC018E8187FD07C061E00E943D1473
:1010900060E08E810E94761481E08983DF91CF9198
:1010A0000895EF92FF920F931F93CF93DF93EC017C
:1010B0007B0188859985009711F00E942F1E9D85E0
:1010C0008A85981303C083E090E002C084E090E03A
:1010D0008E9D80018F9D100D9E9D100D11241D83EE
:1010E0000C83C8010E94971D99878887009741F05B
:1010F000A80160E070E00E943221FB82EA8204C015
:101100001D821C821B821A82DF91CF911F910F9149
:10111000FF90EF900895FC0121E09585828598135A
:1011200020E0CB0136E0969587953A95E1F7482F78
:1011300043704587CB0154E0969587955A95E1F722
:10114000382F33703287CB01969587959695879582
:1011500083708387862F8370848781E06F3F71055A
:1011600011F008F080E0808380859185892B51F013
:1011700091E0431390E0921729F062817381CF01CF
:101180000C9451080895CF92DF92EF92FF920F9343
:101190001F93CF93DF93CDB7DEB729970FB6F8949F
:1011A000DEBF0FBECDBF8C01DC0118968D919C91E6
:1011B0001997892B09F49AC00E947113F801C6840B
:1011C000D784E088F1886C197D098E099F09623304
:1011D00071058105910580F3F894848195819A8346
:1011E0008983A085B1857D01EFEFEE1AFE0A8C910F
:1011F0008987D8019C9152960D90BC91A02DF80141
:101200008489992309F42EC09C91982B98879C91EE
:10121000809589238F838F818E8388E08D83588585
:101220006F8149853D812E8189819A81F7015C9387
:1012300047FD252F3A952C93262F39F0441F00C0E7
:1012400000006C93000000C0F2CF38E041916C9335
:101250000000019761F7F801B38BA28B49873D83AA
:101260002E8338C09C91982B98879C9180958923D8
:101270008F838F818C8388E08B8358856F8149852C
:101280003B812C8189819A81F7015C9347FD252F51
:1012900000C000C02C9300C000C000C000C000C04F
:1012A0006C930000262F3A9541F0441F000000C0C7
:1012B00000C000C000C000C0E8CF38E0419100C0CD
:1012C0006C9300C0019709F7F801B38BA28B498793
:1012D0003B832C839A83898378940E947113D8016D
:1012E0001E966D937D938D939C93519729960FB67F
:1012F000F894DEBF0FBECDBFDF91CF911F910F914C
:10130000FF90EF90DF90CF9008951F93CF93DF93DE
:10131000EC01162F8981882331F08E8187FD03C06F
:1013200060E00E943D141E838981882341F061E0C2
:10133000812F0E943D1460E0812F0E947614812F3E
:1013400090E0FC01E556FD4FE491F0E0EE0FFF1F49
:10135000E155FD4F259134913B8B2A8BFC01E957D8
:10136000FD4F84918C8BDF91CF911F910895EF9267
:10137000FF920F931F93CF93DF931F92CDB7DEB7EA
:101380007C018B01FC011182178211861086168662
:101390001786108A118AB90149830E948B08B80107
:1013A000C7010E9451084981642FC7010F90DF9146
:1013B000CF911F910F91FF90EF900C948509CF92E0
:1013C000DF92EF92FF920F931F93CF93DF93FC0175
:1013D000828193816817790708F04DC0CA01AA2756
:1013E000BB27182FC32ED42EE52EFF24DC2DC22FB1
:1013F0000781002361F0809FC0011124192FC09E36
:1014000060011124DD2D209FC0011124C92FF58416
:101410008285A085B185F81208C0CB01880F991F7D
:10142000860F971F8A0F9B1F17C0CB01880F991F2C
:10143000880F991F8A0F9B1F452F552766277727EF
:10144000DC01AF0DB11D002329F0409F9001112454
:10145000232F01C0242F2C932285DC01A20FB11D64
:101460001C932385DC01A20FB11DDC932485FC01B4
:10147000E20FF11DC083DF91CF911F910F91FF907B
:10148000EF90DF90CF900895962F50E060E070E0ED
:10149000592B682BCB01BA01089526E040E051EEAC
:1014A00060E070E08EE492E00E948F150E94C50D0E
:1014B0000E940B0E0E94D00A0E94FF0D0E94070E90
:1014C0008AE090E090930F0180930E0166E070E057
:1014D0008CE691E00E94891267E570E08CE691E06D
:1014E0000C94C2128CE691E00C94EF11CF938EE431
:1014F00092E00E94AC141816190664F58EE492E08E
:101500000E94C514C82F682F8EE492E00E9407172E
:1015100020917C0130917D012F3331055CF4A901CC
:101520004F5F5F4F50937D0140937C01F901E2587A
:10153000FE4FC083CA3011F0CD30C9F6E0917C0176
:10154000F0917D01E258FE4F10820E94EB0B0E9449
:10155000AE0DCDCFCF910C940011FF920F931F933E
:10156000CF93DF93182F062FF42EC0E0D0E04F2D3D
:10157000602F812F0E94440A9B01AC01BE018EEBBB
:1015800091E00E94DF092196CC30D10581F78EEBE6
:1015900091E0DF91CF911F910F91FF900C94C308C0
:1015A0008EEB91E00C943F08FF920F931F93CF9323
:1015B000DF93F82E8B01C0917C01D0917D01C25840
:1015C000DE4FEEE7F1E03097C9F090819923B1F05A
:1015D000EC17FD0798F49F1109C0CF010196DF9128
:1015E000CF911F910F91FF900C94EB2060E270E07F
:1015F000CF010E943921FC013196E5CFC801DF916E
:10160000CF911F910F91FF900895CF92DF92EF92AB
:10161000FF926A017B01BC018EE492E00E940517F3
:1016200022E030E0B701A6018EE492E0FF90EF9057
:10163000DF90CF900C94DE186DE472E08EE492E0BF
:101640000E94D4166AE271E08EE492E00E9436179E
:1016500063E472E08EE492E00E94121765E272E0A9
:101660008EE492E00E94121765EF71E08EE492E042
:101670000E9412176BEB71E08EE492E00E94121749
:1016800066EA71E08EE492E00E94121760E971E070
:101690008EE492E00E94121766E771E08EE492E019
:1016A0000E9412176BE571E08EE492E00E9412171F
:1016B00060E471E08EE492E00E94121764E271E04F
:1016C0008EE492E00E9412176AE071E08EE492E0EC
:1016D0000E94121765EE70E08EE492E00E941217ED
:1016E00063EB70E08EE492E00C9412176AE271E012
:1016F0008EE492E00C94361740917401509175017C
:1017000060917601709177018DE391E00E94050B65
:10171000409170015091710160917201709173015B
:101720008BE391E00E94050B40910A0150910B015F
:1017300060910C0170910D018FE391E00E94050B07
:1017400080916F01882319F065E371E002C069E3BD
:1017500071E08EE492E00C943617CF93DF93CDB70F
:10176000DEB72C970FB6F894DEBF0FBECDBF40E0BA
:1017700050E061E677E481E491E00E94050B2AE005
:1017800040E051EE60E070E0CE0107960E94FF1944
:1017900063E471E0CE0101960E94A519BE01695F64
:1017A0007F4FCE0101960E94581ABC018EE492E050
:1017B0000E942417CE0101960E943719CE01079688
:1017C0000E9437192C960FB6F894DEBF0FBECDBF1E
:1017D000DF91CF910895AF92BF92CF92DF92EF92B7
:1017E000FF920F931F93CF93DF9300D000D000D0D0
:1017F000CDB7DEB710917E011B3309F49EC16FEFA8
:101800007FEF8EE40E94D40AAA2797FDA095BA2FF5
:101810008F3F2FEF9207A207B20709F45DC01E3475
:1018200009F05AC0409178015091790160917A0194
:1018300070917B0184179507A607B70719F067EA2F
:1018400070E024C06AE270E08EE791E00E943921E6
:10185000892B09F472C1EEE7F1E000E0CF018E5769
:10186000914021912A3211F00227F8CF60E070E018
:1018700081589E4F0E94881F112707FD10950E94D6
:101880004D1B06171707A9F06AE970E08EE492E095
:101890000E94D416409178015091790160917A01AB
:1018A00070917B012AE030E08EE492E00E94E11723
:1018B00044C18091780190917901A0917A01B09111
:1018C0007B010196A11DB11D809378019093790150
:1018D000A0937A01B0937B016FEF7FEF87E40E94C2
:1018E000D40A8830910508F09EC0FC01EC5BFF4FE4
:1018F0000C94771D60E070E086E40E94D40A8C01AD
:1019000060E070E08CE40E94D40A6C0160E070E05A
:1019100084E50E94D40A7C01B801882777FD809570
:10192000982F0E94801B9B01AC0101E0B601C7010A
:101930000E94A11078C060E070E086E40E94D40AA2
:101940008C0160E070E08CE40E94D40A6C0160E0DD
:1019500070E084E50E94D40A7C01B801882777FDF5
:101960008095982F0E94801B9B01AC0100E0DECF88
:1019700067E570E084E40E94D40A7C01BC018827FA
:1019800077FD8095982F0E94801B6093D5017093FE
:10199000D6018093D7019093D801C70164EB70E022
:1019A0000E94221D9093D4018093D301BC0188270B
:1019B00077FD8095982F1F921F921F9224EB2F93F3
:1019C000A12CB12C650114EBE12EF12C00E010E00C
:1019D00020E030E0A9010E94F0187093D4016093D8
:1019E000D3018CE691E00E94C2126091D301709104
:1019F000D4014AE0CE0101960E94D319BE016F5F67
:101A00007F4F8EE492E00E942417CE0101960E943F
:101A100037190F900F900F900F9005C00E94191169
:101A200002C00E941D116FEF7FEF8DE40E94D40A67
:101A30008531910509F45CC0B4F48131910509F454
:101A40004CC034F48430910571F1059781F175C073
:101A50008331910509F446C00CF047C00E94FF0D88
:101A60000E94070E6AC08E36910509F44DC05CF4E1
:101A70008631910509F445C08436910509F05DC0B1
:101A80000E941C0B5AC0883C910509F451C08C324D
:101A900021E0920709F44FC08237910509F04DC04B
:101AA0000E947C0B4AC00E94F40D0E94E50D60E08C
:101AB00070E082E40E94D40A6C0160E070E087E488
:101AC0000E94D40A7C0160E070E082E50E94D40AA2
:101AD000A601B7010E94AD0A30C00E94FB0D0E9412
:101AE000030E2BC00E94DD0D05C00E94E50D25C030
:101AF0000E94EC0D68EE73E080E090E00E94941389
:101B00001CC00E94F40D19C0609178017091790198
:101B10008EE40E94D40AAA2797FDA095BA2F80933D
:101B2000780190937901A0937A01B0937B0105C06D
:101B30000E94760B02C00E94AD0B26960FB6F89459
:101B4000DEBF0FBECDBFDF91CF911F910F91FF90F0
:101B5000EF90DF90CF90BF90AF90089510927D01ED
:101B600010927C0168E970E08EE492E00C94121708
:101B700022E530E04FE06CE070E08EEB91E00C94F9
:101B8000B7098EEB91E00C942B0861E089E00E948C
:101B90003D1461E08AE00E943D1461E08FE00E9404
:101BA0003D1460E08FE00E94761460E089E00E94BE
:101BB000761460E08AE00C94761461E08AE00E947A
:101BC000761481E08093D901089560E08AE00E9454
:101BD00076141092D901089561E089E00E9476148C
:101BE00081E08093D901089560E089E00E94761435
:101BF0001092D901089560E082E00C94761461E0BF
:101C000082E00C94761460E085E00C94761461E038
:101C100085E00C94761461E083E10E943D1460E05D
:101C200083E10E94761461E082E00E943D1461E04D
:101C300085E00E943D1461E083E00E943D1461E074
:101C400086E00E943D1461E083E10E94761440E04A
:101C500050E06AEF74E48BED91E00E94F50640E0FD
:101C600050E06FE274E48BED91E00E947E070C94EB
:101C7000FF0D6F927F928F929F92AF92BF92CF9201
:101C8000EF920F93CF93DF93CDB7DEB7C454D10952
:101C90000FB6F894DEBF0FBECDBF3C014B015A0119
:101CA000CC24C39445E0E42E04E023E042E064E069
:101CB000CE0101960E9489068AE06816710409F037
:101CC000CAC08091DD018B838091DE019091DF019C
:101CD000A091E001B091E1018C839D83AE83BF832D
:101CE0008091E2019091E301A091E401B091E501BE
:101CF00088879987AA87BB878091E6019091E70141
:101D0000A091E801B091E9018C879D87AE87BF87DC
:101D10008091EA019091EB01A091EC01B091ED016D
:101D2000888B998BAA8BBB8B8091EE019091EF01F0
:101D3000A091F001B091F1018C8B9D8BAE8BBF8B8C
:101D40008091F2019091F301A091F401B091F5011D
:101D5000888F998FAA8FBB8F8091F6019091F701A0
:101D6000A091F801B091F9018C8F9D8FAE8FBF8F3C
:101D70008091FA019091FB01A091FC01B091FD01CD
:101D800088A399A3AAA3BBA38091FE019091FF0110
:101D9000A0910002B09101028CA39DA3AEA3BFA3AA
:101DA0008091020290910302A0910402B091050279
:101DB00088A799A7AAA7BBA78091060290910702BE
:101DC0009DA78CA7809108028EA7809109028FA7FA
:101DD00080910A0290910B0299AB88AB80910C0222
:101DE00090910D029BAB8AAB80910E0290910F02F5
:101DF000A0911002B09111028CAB9DABAEABBFAB0A
:101E00008091120290911302A0911402B0911502D8
:101E100088AF99AFAAAFBBAF80911602909117021D
:101E2000A0911802B09119028CAF9DAFAEAFBFAFB9
:101E300040911A0250911B0260911C0270911D0288
:101E400024964CAF5DAF6EAF7FAF249780911E029A
:101E500025968FAF2597A401440F551F440F551F9A
:101E6000662757FD6095762FCE0101960E94D70513
:101E7000B501882777FD8095982F0E94801BAB01C4
:101E8000BC01CE0101960E947E0740E050E06AEF5F
:101E900073E4CE0101960E945A07CE0101960E947A
:101EA0003C04672B682B692B29F0CE0101960E9418
:101EB000FD07F3CFCC5BDF4F0FB6F894DEBF0FBE4C
:101EC000CDBFDF91CF910F91EF90CF90BF90AF90AA
:101ED0009F908F907F906F9008952F923F924F9296
:101EE0005F926F927F928F929F92AF92BF92CF92AA
:101EF000EF920F931F93CF93DF93CDB7DEB7C45408
:101F0000D1090FB6F894DEBF0FBECDBF3C011A0158
:101F10002B0148015901CC24C39455E0E52E04E07F
:101F200023E042E064E0CE0101960E9489068AE047
:101F30006816710409F0CAC08091DD018B8380911D
:101F4000DE019091DF01A091E001B091E1018C836D
:101F50009D83AE83BF838091E2019091E301A091C4
:101F6000E401B091E50188879987AA87BB878091B2
:101F7000E6019091E701A091E801B091E9018C8719
:101F80009D87AE87BF878091EA019091EB01A09178
:101F9000EC01B091ED01888B998BAA8BBB8B809162
:101FA000EE019091EF01A091F001B091F1018C8BC5
:101FB0009D8BAE8BBF8B8091F2019091F301A0912C
:101FC000F401B091F501888F998FAA8FBB8F809112
:101FD000F6019091F701A091F801B091F9018C8F71
:101FE0009D8FAE8FBF8F8091FA019091FB01A091E0
:101FF000FC01B091FD0188A399A3AAA3BBA3809182
:10200000FE019091FF01A0910002B09101028CA30A
:102010009DA3AEA3BFA38091020290910302A09161
:102020000402B091050288A799A7AAA7BBA780912F
:102030000602909107029DA78CA7809108028EA7A7
:10204000809109028FA780910A0290910B0299ABAF
:1020500088AB80910C0290910D029BAB8AAB809172
:102060000E0290910F02A0911002B09111028CAB60
:102070009DABAEABBFAB8091120290911302A091C9
:102080001402B091150288AF99AFAAAFBBAF80918F
:10209000160290911702A0911802B09119028CAF0C
:1020A0009DAFAEAFBFAF80911A0290911B02A0917D
:1020B0001C02B0911D0224968CAF9DAFAEAFBFAF96
:1020C000249780911E0225968FAF259720E030E05F
:1020D00040E850E4C201B1010E94341C0E944D1B33
:1020E000AB01BC01CE0101960E94D705B501A40148
:1020F000CE0101960E947E07CE0101960E943C040B
:10210000672B682B692B29F0CE0101960E940808E5
:10211000F3CFCC5BDF4F0FB6F894DEBF0FBECDBF61
:10212000DF91CF911F910F91EF90CF90BF90AF9023
:102130009F908F907F906F905F904F903F902F90E7
:102140000895AF92BF92CF92DF92EF92FF920F93DA
:102150001F93CF93DF935C01EB0169017A010023A8
:1021600011F1009751F0CA01B9010E944D1BAB015A
:10217000B5018AE090E00E94390E2097B1F1C701C5
:10218000B6010E944D1BAB01BE018BE090E0DF91D8
:10219000CF911F910F91FF90EF90DF90CF90BF9064
:1021A000AF900C94390E009779F0BC01882777FD29
:1021B0008095982F0E94801BAB01BC01970186017E
:1021C0008AE090E00E946D0F209779F0BE01882789
:1021D00077FD8095982F0E94801BAB01BC01970171
:1021E00086018BE090E00E946D0FDF91CF911F91EF
:1021F0000F91FF90EF90DF90CF90BF90AF90089538
:102200008091DA018823A1F040E050E06AE774E4AD
:102210008BED91E00E947E074AE050E060E070E0C4
:102220008BED91E00E94D7058BED91E00C94D303E8
:10223000089581E08093DA0108951092DA010895FB
:10224000CF92EF920F93CC24C39465E0E62E04E086
:1022500024E043E062E08BED91E00E9489060F915B
:10226000EF90CF9008951F920F920FB60F92112406
:102270002F933F934F935F936F937F938F939F938E
:10228000AF93BF93EF93FF938091200287FF05C028
:1022900010928500109284001AC0209120023327EA
:1022A00027FD309580911F0290E0281739077CF4B4
:1022B00080912002992787FD9095FC01EE0FFF1F6A
:1022C000E80FF91FEF5DFD4F808186FD15C08091FD
:1022D00020028F5F8093200220912002332727FD68
:1022E000309580911F0290E028173907BCF4809147
:1022F00020028C305CF112C080912002992787FD6A
:102300009095FC01EE0FFF1FE80FF91FEF5DFD4FE9
:10231000808160E08F730E947614D9CF8091840011
:1023200090918500049680349C4918F480E49CE9DF
:1023300005C0809184009091850004969093890057
:10234000809388008FEF8093200238C02091840012
:102350003091850080912002992787FD9095FC019E
:10236000EE0FFF1FE80FF91FEF5DFD4F8181928196
:10237000820F931F909389008093880080912002A0
:10238000992787FD9095FC01EE0FFF1FE80FF91FBD
:10239000EF5DFD4F808186FF11C08091200299275B
:1023A00087FD9095FC01EE0FFF1FE80FF91FEF5D11
:1023B000FD4F808161E08F730E947614FF91EF9151
:1023C000BF91AF919F918F917F916F915F914F914D
:1023D0003F912F910F900FBE0F901F901895209155
:1023E0001F022C30A0F431E0320F30931F02FC01A9
:1023F0002083822F90E0FC01EE0FFF1FE80FF91FF2
:10240000EF5DFD4F88EB9BE09283818308952FEF72
:10241000FC0120830895DF92EF92FF920F931F93A8
:10242000CF93DF93EC01D62E7A01890188818C301D
:1024300008F066C061E08D2D0E943D148881A82FB0
:10244000B0E0FD01EE0FFF1FEA0FFB1FEF5DFD4F38
:102450002D2D2F739081907C922B908360E272E0FF
:102460006E197F0977FF02C06D5F7F4F7595679585
:1024700075956795698340E659E0401B510B57FFFE
:1024800002C04D5F5F4F55954795559547954A83D7
:102490006CE00E94021D9CE0899FB001112420E0A5
:1024A00030E0A901460F571FFA01EE0FFF1FE40F9E
:1024B000F51FEF5DFD4F908196FD16C02F5F3F4FDA
:1024C0002C30310571F781110FC01092800082E02D
:1024D000809381001092850010928400B19A8091BF
:1024E0006F00826080936F00888190E0FC01EE0FA6
:1024F000FF1FE80FF91FEF5DFD4F8081806480832F
:102500008881DF91CF911F910F91FF90EF90DF9025
:10251000089520E639E040E252E00C940B12FC01F1
:1025200080818C3070F5918128E830E0291B3109D9
:1025300097FD3395220F331F220F331F6217730746
:102540007CF0928128E532E0291B310997FD339513
:10255000220F331F220F331F621773070CF49B01E6
:1025600022503109220F331F4FB7F89490E0FC013D
:10257000EE0FFF1FE80FF91FEF5DFD4F3283218340
:102580004FBF08954F925F926F927F92AF92BF922A
:10259000CF92DF92EF92FF920F931F93CF93DF932F
:1025A000EC01603282E078070CF040C077FD06C095
:1025B000653B71052CF064EB70E002C060E070E0F8
:1025C000898128E830E0281B310987FD3395220FE7
:1025D000331F220F331F5901CC24B7FCC094DC2CCD
:1025E000882777FD8095982F2A8148E552E0421B85
:1025F000510927FD5395440F551F440F551F2A01BC
:10260000662457FC6094762C7F926F925F924F9273
:1026100014EBE12EF12C00E010E020E030E0A90105
:102620000E94F0180F900F900F900F90CE01DF9145
:10263000CF911F910F91FF90EF90DF90CF90BF90BF
:10264000AF907F906F905F904F900C948F121F927D
:102650000F920FB60F9211242F933F938F939F9356
:10266000AF93BF938091460290914702A091480298
:10267000B09149023091450223E0230F2D3720F419
:102680000196A11DB11D05C026E8230F0296A11DCC
:10269000B11D209345028093460290934702A09378
:1026A0004802B093490280914A0290914B02A09156
:1026B0004C02B0914D020196A11DB11D80934A02BA
:1026C00090934B02A0934C02B0934D02BF91AF91F7
:1026D0009F918F913F912F910F900FBE0F901F9060
:1026E00018953FB7F89480914A0290914B02A091BF
:1026F0004C02B0914D0226B5A89B05C02F3F19F0A2
:102700000196A11DB11D3FBF6627782F892F9A2FF3
:10271000620F711D811D911D42E0660F771F881F9A
:10272000991F4A95D1F708958F929F92AF92BF92C9
:10273000CF92DF92EF92FF926B017C010E947113A6
:102740004B015C01C114D104E104F104F1F00E94D9
:102750007B1A0E947113681979098A099B09683EDE
:1027600073408105910570F321E0C21AD108E10898
:10277000F10888EE880E83E0981EA11CB11CC114DC
:10278000D104E104F10429F7DDCFFF90EF90DF9051
:10279000CF90BF90AF909F908F9008958230910519
:1027A00038F0880F991F880F991F05970197F1F747
:1027B0000895789484B5826084BD84B5816084BDB9
:1027C00085B5826085BD85B5816085BDEEE6F0E0AA
:1027D000808181608083E1E8F0E010828081826006
:1027E0008083808181608083E0E8F0E08081816087
:1027F0008083E1EBF0E0808184608083E0EBF0E0B7
:10280000808181608083EAE7F0E08081846080835A
:102810008081826080838081816080838081806804
:1028200080831092C1000895833081F028F48130B4
:1028300099F08230A1F008958730A9F08830B9F07E
:102840008430D1F4809180008F7D03C0809180001E
:102850008F7780938000089584B58F7702C084B508
:102860008F7D84BD08958091B0008F7703C08091E3
:10287000B0008F7D8093B0000895CF93DF9390E0F8
:10288000FC01E957FD4F2491FC01E556FD4F849171
:10289000882349F190E0880F991FFC01E754FD4F10
:1028A000A591B49181559D4FFC01C591D4919FB7DD
:1028B000611108C0F8948C91209582238C938881B3
:1028C00082230AC0623051F4F8948C91322F3095F3
:1028D00083238C938881822B888304C0F8948C9105
:1028E000822B8C939FBFDF91CF9108950F931F93FD
:1028F000CF93DF931F92CDB7DEB7282F30E0F901D9
:10290000ED58FD4F8491F901E957FD4F1491F901FC
:10291000E556FD4F04910023C9F0882321F0698317
:102920000E9414146981E02FF0E0EE0FFF1FE155C3
:10293000FD4FA591B4919FB7F8948C91611103C09C
:102940001095812301C0812B8C939FBF0F90DF9145
:10295000CF911F910F910895FC01818D228D90E000
:10296000805C9F4F821B91098F7399270895FC010A
:10297000918D828D981731F0828DE80FF11D858D34
:1029800090E008958FEF9FEF0895FC01918D828D67
:10299000981761F0828DDF01A80FB11D5D968C91B3
:1029A000928D9F5F9F73928F90E008958FEF9FEFBE
:1029B000089589E496E1892B49F080E090E0892B25
:1029C00029F00E94491681110C9400000895FC0121
:1029D000848DDF01A80FB11DA35ABF4F2C91848DA8
:1029E00090E001968F739927848FA689B7892C93DD
:1029F000A089B1898C9180648C93938D848D981378
:102A000006C00288F389E02D80818F7D8083089540
:102A1000CF93DF93EC01888D8823C9F0EA89FB8985
:102A2000808185FD05C0A889B9898C9186FD0FC07C
:102A30000FB607FCF5CF808185FFF2CFA889B98951
:102A40008C9185FFEDCFCE010E94E714E7CFDF9197
:102A5000CF910895CF92DF92FF920F931F93CF9360
:102A6000DF931F92CDB7DEB76C0181E0D601589697
:102A70008C9358975B969C915B975C968C915C9736
:102A8000981307C05096ED91FC915197808185FD78
:102A90002EC0F601038D10E00F5F1F4F0F7311273B
:102AA000F02EF601848DF81211C00FB607FCF9CF95
:102AB000D6015096ED91FC915197808185FFF1CF21
:102AC000C60169830E94E7146981EBCF838DE80F0B
:102AD000F11DE35AFF4F6083D6015B960C935B9721
:102AE0005296ED91FC915397808180620CC0D60183
:102AF0005696ED91FC91579760835096ED91FC911D
:102B0000519780818064808381E090E00F90DF9115
:102B1000CF911F910F91FF90DF90CF900895BF92BA
:102B2000CF92DF92EF92FF92CF93DF93EC016A0195
:102B30007B01B22EE889F98982E08083411581EE1C
:102B4000580761057105A1F060E079E08DE390E040
:102B5000A70196010E94361D2150310941095109F2
:102B60005695479537952795211580E1380798F0B8
:102B7000E889F989108260E874E88EE190E0A701A5
:102B800096010E94361D215031094109510956957F
:102B9000479537952795EC85FD853083EE85FF8534
:102BA0002083188EEC89FD89B082EA89FB898081B7
:102BB00080618083EA89FB89808188608083EA89DB
:102BC000FB89808180688083EA89FB8980818F7D91
:102BD0008083DF91CF91FF90EF90DF90CF90BF90F7
:102BE00008951F920F920FB60F9211242F938F9377
:102BF0009F93EF93FF93E0915E02F0915F028081DB
:102C0000E0916402F091650282FD12C09081809192
:102C100067028F5F8F7320916802821751F0E091F5
:102C20006702F0E0E25BFD4F958F8093670201C081
:102C30008081FF91EF919F918F912F910F900FBE07
:102C40000F901F9018951F920F920FB60F9211249C
:102C50002F933F934F935F936F937F938F939F93A4
:102C6000AF93BF93EF93FF938EE492E00E94E7143B
:102C7000FF91EF91BF91AF919F918F917F916F9154
:102C80005F914F913F912F910F900FBE0F901F902A
:102C900018958EE492E00E94AC1421E0892B09F48F
:102CA00020E0822F0895109251021092500288EE77
:102CB00093E0A0E0B0E08093520290935302A0937F
:102CC0005402B09355028FE491E090934F028093A9
:102CD0004E0285EC90E090935B0280935A0284EC64
:102CE00090E090935D0280935C0280EC90E0909382
:102CF0005F0280935E0281EC90E09093610280938A
:102D0000600282EC90E0909363028093620286EC12
:102D100090E0909365028093640210926702109293
:102D200068021092690210926A020895CF92DF92AF
:102D3000EF92FF920F931F93CF93DF937C016A0171
:102D4000EB0100E010E00C151D0571F06991D70151
:102D5000ED91FC910190F081E02DC7010995892B3F
:102D600019F00F5F1F4FEFCFC801DF91CF911F9177
:102D70000F91FF90EF90DF90CF900895611571054E
:102D800081F0DB010D900020E9F7AD0141505109C0
:102D9000461B570BDC01ED91FC910280F381E02D85
:102DA000099480E090E00895EF92FF920F931F93B3
:102DB000CF93DF938C017B01C0E0D0E0F701EC0FF3
:102DC000FD1F6491662359F0F801A081B181ED9156
:102DD000FC91C8010995892B11F02196EFCFCE0106
:102DE000DF91CF911F910F91FF90EF900895DC013B
:102DF000ED91FC91DB0114964D915C9115976D91CD
:102E00007C910280F381E02D09940C94BE16DC01C4
:102E1000ED91FC910190F081E02D09946BE571E05A
:102E20000C94BE160F931F93CF93DF93EC010E9477
:102E3000D4168C01CE010E940E17800F911FDF91D6
:102E4000CF911F910F9108950F931F93CF93DF930D
:102E5000EC010E94F7168C01CE010E940E17800F24
:102E6000911FDF91CF911F910F9108950F931F93A1
:102E7000CF93DF93EC010E94BE168C01CE010E941D
:102E80000E17800F911FDF91CF911F910F91089521
:102E90008F929F92AF92BF92DF92EF92FF920F9329
:102EA0001F93CF93DF93CDB7DEB7A1970FB6F894FA
:102EB000DEBF0FBECDBF7C01F42FD52ECB0119A2F2
:102EC000223008F42AE08E010F5D1F4F822E912CD4
:102ED000A12CB12C6F2F7D2DA50194010E94361DD0
:102EE000F22FD32ECA01015011096A3014F4E0E325
:102EF00001C0E7E3E60FD801EC93232B242B252B0D
:102F000049F7B801C7010E94BE16A1960FB6F89402
:102F1000DEBF0FBECDBFDF91CF911F910F91FF900C
:102F2000EF90DF90BF90AF909F908F900895CF92D9
:102F3000DF92EF92FF920F931F93CF93DF93EC01F9
:102F40006A017B012115310579F4E881F98101904D
:102F5000F081E02D642FDF91CF911F910F91FF90B1
:102F6000EF90DF90CF9009942A303105E9F477FF94
:102F70001AC06DE20E9407178C0144275527BA0139
:102F80004C195D096E097F092AE0CE010E9448179D
:102F9000800F911FDF91CF911F910F91FF90EF90C4
:102FA000DF90CF9008952AE0B701A601CE01DF910E
:102FB000CF911F910F91FF90EF90DF90CF900C94E5
:102FC00048170F931F93CF93DF93EC010E9497173D
:102FD0008C01CE010E940E17800F911FDF91CF91BF
:102FE0001F910F9108954F925F926F927F928F92EF
:102FF0009F92AF92BF92CF92DF92EF92FF920F9388
:103000001F93CF93DF93EC016A017B01B22E9A01EB
:10301000AB01C701B6010E94D91C882319F06EE5E7
:1030200071E027C026013701E89477F82FEF3FEFD2
:103030004FE75FE7C301B2010E94D91C81110DC0A7
:103040002FEF3FEF4FE75FE7C301B2010E94E11AA4
:1030500018161CF462E671E00CC02FEF3FEF4FE74B
:103060005FE4C701B6010E94301C1816ACF466E696
:1030700071E0CE01DF91CF911F910F91FF90EF9002
:10308000DF90CF90BF90AF909F908F907F906F9088
:103090005F904F900C94BE162FEF3FEF4FE75FEC21
:1030A000C701B6010E94E11A87FDE1CF20E030E0C0
:1030B000A901C701B6010E94E11A87FF0AC06DE2AB
:1030C000CE010E9407178C01F7FAF094F7F8F094FC
:1030D00002C000E010E0A12C60E070E080E09FE31F
:1030E000AB1441F020E030E040E251E40E94E51AE8
:1030F000A394F6CF9B01AC01C701B6010E947D1AD3
:103100006B017C010E94521B2B013C010E947E1B23
:103110009B01AC01C701B6010E947C1A6B017C01C6
:103120002AE0B301A201CE010E944817080F191F1F
:10313000BB2039F06AE671E0CE010E94BE16080F8E
:10314000191F7B2C772041F120E030E040E251E470
:10315000C701B6010E94341C6B017C010E944D1B0B
:103160004B01AA2497FCA094BA2C2AE030E0B501C8
:10317000A401CE010E949717080F191FC501B401C1
:103180000E94801B9B01AC01C701B6010E947C1A02
:103190006B017C017A94D6CFC801DF91CF911F914A
:1031A0000F91FF90EF90DF90CF90BF90AF909F90E6
:1031B0008F907F906F905F904F9008950F931F9323
:1031C000CF93DF93EC010E94F3178C01CE010E9494
:1031D0000E17800F911FDF91CF911F910F910895CE
:1031E0004F925F926F927F92AF92BF92CF92DF9297
:1031F000EF92FF920F931F93CF93DF93CDB7DEB77C
:1032000029013A01621B730B840B950B29893A89BA
:103210004B895C892A193B094C095D09298B3A8B3A
:103220004B8B5C8B9B01AC0169897A898B899C896A
:103230000E94F21CE418F50806091709A801970175
:103240000E94581D2A0D3B1D4C1D5D1DCA01B90170
:10325000DF91CF911F910F91FF90EF90DF90CF9072
:10326000BF90AF907F906F905F904F900895FC015A
:10327000808191810C942F1ECF93DF93EC01888184
:103280009981009711F00E942F1E198218821D82C9
:103290001C821B821A82DF91CF9108950F931F9396
:1032A000CF93DF93EC018B016F5F7F4F8881998112
:1032B0000E94BE1E009731F0998388831B830A8386
:1032C00081E001C080E0DF91CF911F910F910895BF
:1032D000CF93DF93EC0188819981892B29F08A8132
:1032E0009B818617970760F4CE010E944E198823B0
:1032F00041F08C819D81892B19F4E881F98110823C
:1033000081E0DF91CF910895EF92FF920F931F9389
:10331000CF93DF93EC017B018A01BA010E94681907
:10332000811104C0CE010E943C1907C01D830C838B
:10333000B701888199810E944421CE01DF91CF910C
:103340001F910F91FF90EF900895FC011182108260
:1033500013821282158214826115710559F0FB01E6
:1033600001900020E9F7AF0141505109461B570B6E
:103370000C9484190895CF93DF93EC0161157105C6
:1033800061F0FB0101900020E9F7AF0141505109C4
:10339000461B570B0E94841902C00E943C19CE01A3
:1033A000DF91CF9108950F931F93CF93DF93CDB704
:1033B000DEB762970FB6F894DEBF0FBECDBF8C01AB
:1033C000CB01F801118210821382128215821482BD
:1033D00050E0BE016F5F7F4F0E944B21BE016F5FC7
:1033E0007F4FC8010E94BB1962960FB6F894DEBFEA
:1033F0000FBECDBFDF91CF911F910F9108950F9315
:103400001F93CF93DF93CDB7DEB7A2970FB6F89493
:10341000DEBF0FBECDBF8C01CB01BA01F801118216
:103420001082138212821582148230E0AE014F5F47
:103430005F4F0E946121BE016F5F7F4FC8010E94F4
:10344000BB19A2960FB6F894DEBF0FBECDBFDF91B9
:10345000CF911F910F910895EF92FF920F931F93B9
:10346000CF93DF93EC017B010C811D816115710508
:1034700011F480E016C04115510591F0040F151F9D
:10348000B8010E9468198823A1F3288139818C81B1
:103490009D81B701820F931F0E9444211D830C83DD
:1034A00081E0DF91CF911F910F91FF90EF900895F0
:1034B000CF93DF93EC01FB014481558160817181E1
:1034C0000E942C1A811103C0CE010E943C19CE012A
:1034D000DF91CF91089508950E94D9130E946B1A2D
:1034E0000E944D0AC9EDD4E10E94760A2097E1F3CB
:1034F0000E94D914F9CF08955058BB27AA270ED09F
:1035000075C166D130F06BD120F031F49F3F11F4DA
:103510001EF45BC10EF4E095E7FB51C1E92F77D1B2
:1035200080F3BA17620773078407950718F071F4E0
:103530009EF58FC10EF4E0950B2EBA2FA02D0B0136
:10354000B90190010C01CA01A0011124FF27591BE8
:1035500099F0593F50F4503E68F11A16F040A22FEE
:10356000232F342F4427585FF3CF4695379527955F
:10357000A795F0405395C9F77EF41F16BA0B620B5E
:10358000730B840BBAF09150A1F0FF0FBB1F661FA5
:10359000771F881FC2F70EC0BA0F621F731F841FE8
:1035A00048F4879577956795B795F7959E3F08F00E
:1035B000B3CF9395880F08F09927EE0F97958795CD
:1035C0000895D9D008F481E008950CD00FC107D137
:1035D00040F0FED030F021F45F3F19F0F0C05111FF
:1035E00039C1F3C014D198F39923C9F35523B1F32A
:1035F000951B550BBB27AA2762177307840738F062
:103600009F5F5F4F220F331F441FAA1FA9F333D0C0
:103610000E2E3AF0E0E830D091505040E695001C74
:10362000CAF729D0FE2F27D0660F771F881FBB1F30
:10363000261737074807AB07B0E809F0BB0B802D0A
:10364000BF01FF2793585F4F2AF09E3F510568F056
:10365000B6C000C15F3FECF3983EDCF386957795EA
:103660006795B795F7959F5FC9F7880F911D969558
:10367000879597F90895E1E0660F771F881FBB1FB4
:10368000621773078407BA0720F0621B730B840B61
:10369000BA0BEE1F88F7E095089504D06894B11135
:1036A000D9C00895BCD088F09F5790F0B92F9927C2
:1036B000B751A0F0D1F0660F771F881F991F1AF03D
:1036C000BA95C9F712C0B13081F0C3D0B1E0089506
:1036D000C0C0672F782F8827B85F39F0B93FCCF387
:1036E000869577956795B395D9F73EF49095809533
:1036F000709561957F4F8F4F9F4F0895E89409C053
:1037000097FB3EF490958095709561957F4F8F4F14
:103710009F4F9923A9F0F92F96E9BB279395F6952A
:10372000879577956795B795F111F8CFFAF4BB0FA8
:1037300011F460FF1BC06F5F7F4F8F4F9F4F16C00C
:10374000882311F096E911C0772321F09EE8872F96
:10375000762F05C0662371F096E8862F70E060E052
:103760002AF09A95660F771F881FDAF7880F9695CB
:10377000879597F90895990F0008550FAA0BE0E86F
:10378000FEEF16161706E807F907C0F01216130623
:10379000E407F50798F0621B730B840B950B39F463
:1037A0000A2661F0232B242B252B21F408950A26C9
:1037B00009F4A140A6958FEF811D811D089597F909
:1037C0009F6780E870E060E008959FEF80EC0895C7
:1037D00000240A94161617061806090608950024F0
:1037E0000A9412161306140605060895092E03946A
:1037F000000C11F4882352F0BB0F40F4BF2B11F4DE
:1038000060FF04C06F5F7F4F8F4F9F4F089557FD3C
:103810009058440F551F59F05F3F71F04795880F3E
:1038200097FB991F61F09F3F79F0879508951216D5
:1038300013061406551FF2CF4695F1DF08C0161681
:1038400017061806991FF1CF869571056105089432
:103850000895E894BB2766277727CB0197F9089549
:103860008ADF08F48FEF08950BD0C0CFB1DF28F0C6
:10387000B6DF18F0952309F0A2CFA7CF1124EACF25
:10388000C6DFA0F3959FD1F3950F50E0551F629FBF
:10389000F001729FBB27F00DB11D639FAA27F00DA9
:1038A000B11DAA1F649F6627B00DA11D661F829FD0
:1038B0002227B00DA11D621F739FB00DA11D621FB5
:1038C000839FA00D611D221F749F3327A00D611DD2
:1038D000231F849F600D211D822F762F6A2F1124B4
:1038E0009F5750408AF0E1F088234AF0EE0FFF1F07
:1038F000BB1F661F771F881F91505040A9F79E3F3E
:10390000510570F05CCFA6CF5F3FECF3983EDCF33F
:10391000869577956795B795F795E7959F5FC1F77A
:10392000FE2B880F911D9695879597F9089511F4B0
:103930000EF44BCF42C073DFD0F39923D9F3CEF30B
:103940009F57550B87FF47D00024A0E640EA90011F
:1039500080585695979528F4805C660F771F881FCE
:1039600020F026173707480730F4621B730B840BCF
:10397000202931294A2BA695179407942025312513
:103980004A2758F7660F771F881F20F0261737073A
:10399000480730F4620B730B840B200D311D411D61
:1039A000A09581F7B901842F9158880F9695879536
:1039B0000895E1DE880B990B08959F3F31F09150F7
:1039C00020F4879577956795B795880F911D969503
:1039D000879597F9089591505040660F771F881F7B
:1039E000D2F70895DB018F939F930E947D1DBF91B5
:1039F000AF91A29F800D911DA39F900DB29F900D3E
:103A000011240895991B79E004C0991F961708F0B6
:103A1000961B881F7A95C9F780950895AA1BBB1B32
:103A200051E107C0AA1FBB1FA617B70710F0A61BBE
:103A3000B70B881F991F5A95A9F780959095BC01DF
:103A4000CD01089597FB072E16F4009407D077FD5B
:103A500009D00E940E1D07FC05D03EF4909581957B
:103A60009F4F0895709561957F4F0895A1E21A2E9A
:103A7000AA1BBB1BFD010DC0AA1FBB1FEE1FFF1F12
:103A8000A217B307E407F50720F0A21BB30BE40B62
:103A9000F50B661F771F881F991F1A9469F76095A9
:103AA0007095809590959B01AC01BD01CF01089563
:103AB000052E97FB1EF400940E946F1D57FD07D042
:103AC0000E94361D07FC03D04EF40C946F1D5095D8
:103AD0004095309521953F4F4F4F5F4F08959095FA
:103AE0008095709561957F4F8F4F9F4F0895EE0F92
:103AF000FF1F0590F491E02D09940E94881DA59F59
:103B0000900DB49F900DA49F800D911D11240895D8
:103B1000A29FB001B39FC001A39F700D811D11240E
:103B2000911DB29F700D811D1124911D0895CF9399
:103B3000DF938230910510F482E090E0E091ED0295
:103B4000F091EE0220E030E0A0E0B0E0309739F1F3
:103B50004081518148175907B8F04817590771F447
:103B600082819381109729F013969C938E931297DC
:103B70002CC09093EE028093ED0227C021153105F1
:103B800031F04217530718F0A901DB0101C0EF0122
:103B90009A01BD01DF010280F381E02DD7CF21150D
:103BA0003105F9F0281B390B2430310580F48A8166
:103BB0009B816115710521F0FB019383828304C011
:103BC0009093EE028093ED02FE01329644C0FE0116
:103BD000E20FF31F81939193225031093983288397
:103BE0003AC02091EB023091EC02232B41F420915A
:103BF0000201309103013093EC022093EB022091FB
:103C00000001309101012115310541F42DB73EB776
:103C10004091040150910501241B350BE091EB020A
:103C2000F091EC02E217F307A0F42E1B3F0B2817CC
:103C3000390778F0AC014E5F5F4F2417350748F025
:103C40004E0F5F1F5093EC024093EB0281939193D0
:103C500002C0E0E0F0E0CF01DF91CF910895CF9373
:103C6000DF93009709F487C0FC0132971382128218
:103C7000C091ED02D091EE02209781F42081318134
:103C8000280F391F8091EB029091EC028217930765
:103C900079F5F093EC02E093EB026DC0DE0120E0D9
:103CA00030E0AE17BF0750F412964D915C91139718
:103CB0009D014115510509F1DA01F3CFB383A283C8
:103CC00040815181840F951F8A179B0771F48D9154
:103CD0009C911197840F951F029691838083129671
:103CE0008D919C911397938382832115310529F43B
:103CF000F093EE02E093ED023EC0D9011396FC93DF
:103D0000EE9312974D915D91A40FB51FEA17FB0733
:103D100079F480819181840F951F0296D9011196C3
:103D20009C938E938281938113969C938E9312978A
:103D3000E0E0F0E08A819B81009719F0FE01EC0140
:103D4000F9CFCE01029628813981820F931F2091ED
:103D5000EB023091EC022817390769F4309729F407
:103D60001092EE021092ED0202C013821282D093E2
:103D7000EC02C093EB02DF91CF910895A0E0B0E098
:103D8000E4ECFEE10C94D621EC01CB01209719F470
:103D90000E94971DB8C0FE01E60FF71F9E0122503A
:103DA0003109E217F30708F4ACC0D9010D911C9159
:103DB000119706171707B8F00530110508F49FC0D2
:103DC000A801445051094617570708F498C00250FB
:103DD0001109061B170B019311936D937C93CF016F
:103DE0000E942F1E8CC05B01A01AB10A4E01800EEA
:103DF000911EA091ED02B091EE02612C712C60E059
:103E000070E0109709F449C0A815B905C9F5ED90FF
:103E1000FC901197670142E0C40ED11CCA14DB0468
:103E200078F147018A189B08640142E0C40ED11C56
:103E30001296BC9012971396AC91B5E0CB16D104B4
:103E400040F0B282A38391828082D9018D939C93AA
:103E500009C00E5F1F4F0E0D1F1DF9011183008356
:103E6000EB2DFA2F6115710531F0DB011396FC93F0
:103E7000EE93129744C0F093EE02E093ED023FC040
:103E80006D917C9111976616770608F43B01BD0190
:103E900012960D90BC91A02DB4CF6091EB02709161
:103EA000EC0268157905E9F468167906D0F44091BA
:103EB0000001509101014115510541F44DB75EB724
:103EC0006091040170910501461B570BE417F5073B
:103ED000C0F4F093EC02E093EB02F901918380834C
:103EE0000EC00E94971D7C01009759F0A801BE01E9
:103EF0000E942921CE010E942F1EC70104C0CE01BD
:103F000002C080E090E0CDB7DEB7EEE00C94F22185
:103F1000A0E0B0E0EEE8FFE10C94D8218B01611540
:103F2000710521F0DB018C9311969C93EC015E01ED
:103F3000BFEFAB1ABB0A7501C8808C2D90E00E94C0
:103F40000921892B11F0E501F2CFEDE2CE1208C074
:103F50007E01F2E0EF0EF11CC980DD24D39409C08C
:103F60002BE2C21205C07E0142E0E40EF11CC980C2
:103F7000D12CE701219743E050E06BEC72E0CE01D9
:103F80000E941121892BC1F4239645E050E066EC94
:103F900072E0CE010E941121892B09F425960115AA
:103FA000110519F0D801CD93DC93D11006C160E062
:103FB00070E080E89FE70AC143E050E063EC72E004
:103FC000CE010E941121892B59F40115110509F424
:103FD000F9C0B2E0EB0EF11CF801F182E082F2C010
:103FE000F70160E070E0CB01C0E0D0E07F01A0ED20
:103FF000AA2EAC0C29E02A1530F14D2D4260B42ECA
:104000002D2D2870D2FE04C0211125C0219623C079
:1040100021112197A5E0B0E09B01AC010E947D1D1C
:10402000660F771F881F991F6A0D711D811D911DD5
:104030006839A9E97A078A07A9E19A0760F0BD2DD6
:10404000B660BB2E08C02EEFA2120AC0D3FC50C02F
:104050004D2D4860B42E3196D701CC90DB2CC6CFC5
:104060002C2D2F7D253409F043C0A081AD3241F4C1
:10407000BD2DB061DB2E7F0122E0E20EF11C0CC0F1
:104080007F01AB3231F04FEFE41AF40A21E030E067
:1040900006C0A2E0EA0EF11CA18122E030E0A053AC
:1040A000AA3018F0E21AF30A23C0F70120E030E04A
:1040B0002038BCE03B075CF4A901440F551F440FB6
:1040C000551F240F351F220F331F2A0F311DAF013B
:1040D0004F5F5F4F7A01A081A053AA3010F4FA011C
:1040E000E7CFD4FE03C0319521953109C20FD31F0C
:1040F000D1FE09C00115110531F0E1E0EE1AF10819
:10410000D801ED92FC920E947E1B2D2D237023304E
:1041100019F04B015C0106C04B015C01B7FAB09489
:10412000B7F8B09420E030E0A901C501B4010E94C5
:10413000E11A882309F43EC0D7FF06C0D195C19586
:10414000D10902EE12E002C00AEF12E06801B8E104
:10415000CB1AD10890E2E92EF12CCE15DF0574F0D0
:10416000F8012591359145915491C501B4010E9402
:10417000341C4B015C01CE19DF09EFCF045011094B
:10418000F594E7940C151D0541F78A2D880F8B2DAA
:10419000881F8F3F49F020E030E0A901C501B4013C
:1041A0000E94E11A811106C082E290E09093F00231
:1041B0008093EF02C501B40109C060E070E080E8BF
:1041C0009FEF04C060E070E080EC9FE7CDB7DEB702
:1041D000ECE00C94F421FC0188279927E8942191C4
:1041E0002032E9F3293010F02E30C8F32B3241F0A1
:1041F0002D3239F4689404C00E947B21820F911DF6
:10420000219120532A30C0F31EF4909581959F4F41
:1042100008959111B4C0803219F089508550D0F7BB
:104220000895FB01DC014150504088F08D918134AC
:104230001CF08B350CF4805E659161341CF06B359D
:104240000CF4605E861B611171F3990B0895881B55
:10425000FCCFFB01DC0102C001900D9241505040A7
:10426000D8F70895DC0101C06D9341505040E0F74C
:104270000895FC018191861721F08823D9F79927A9
:1042800008953197CF010895FB01DC0101900D9253
:104290000020E1F708954532510520F4423010F036
:1042A0000C945621FB011082CB010895BB274A30A4
:1042B00031F4992322F4BDE2909581959F4F0C949F
:1042C000A6212532310520F4223010F00C946C2107
:1042D000FA011082CA010895BB272A3051F49923AC
:1042E00042F4BDE290958095709561957F4F8F4F18
:1042F0009F4F0C9484217AE0979F902D879F802D6B
:10430000910D11240895BB27FA01A62F621771059C
:1043100081059105330B30FB66F0AA27660F771FE6
:10432000881F991FAA1FA21710F0A21B639538506F
:10433000A9F7A05DAA3308F0A95DA19336F7B111E2
:10434000B1931082CA010C94C221BB27FB015527EF
:10435000AA27880F991FAA1FA41710F0A41B8395E2
:104360005051B9F7A05DAA3308F0A95DA193009759
:1043700079F7B111B1931192CB010C94C221992715
:1043800088270895DC01FC01672F71917723E1F7FD
:10439000329704C07C916D9370836291AE17BF0712
:1043A000C8F308952F923F924F925F926F927F923F
:1043B0008F929F92AF92BF92CF92DF92EF92FF9235
:1043C0000F931F93CF93DF93CDB7DEB7CA1BDB0BE1
:1043D0000FB6F894DEBF0FBECDBF09942A88398886
:1043E00048885F846E847D848C849B84AA84B9848D
:1043F000C884DF80EE80FD800C811B81AA81B98199
:10440000CE0FD11D0FB6F894DEBF0FBECDBFED01AC
:10441000089513E0C6E0D3E004C0FE010E94791DB8
:0C4420002296C830D107C9F7F894FFCFEE
:10442C000000F10280000100000000401C460A0060
:10443C00000000008703A0037D02AE01FB02C10255
:10444C00110332036603F2014802762E3230313703
:10445C0030373236004142530052454C005400462E
:10446C0000420042415544494F5300000000002ACD
:10447C00159616AC14C514B71408150D0A006E6108
:0C448C006E00696E66006F7666002E0000
:00000001FF
