:100000000C9483010C94AB010C94AB010C94AB01E8
:100010000C94AB010C94AB010C94AB010C94AB01B0
:100020000C94AB010C94AB010C94AB010C947911C2
:100030000C94AB010C94AB010C94AB010C94AB0190
:100040000C946D130C94AB010C9437160C94691638
:100050000C94AB010C94AB010C94AB010C94AB0170
:100060000C94AB010C94AB01BB01C201C901D001DE
:10007000D701EE01DE01EE01E5015E0262026602D9
:100080006A026E02720276029E0C9E0C7D0C020DBC
:100090009E0CBB0CFD0C000D3E0042414443484504
:1000A000434B53554D20004241444C494E454E551B
:1000B0004D20004D3330303B202D2044696D6520AC
:1000C0006C6F732062617564696F7320646520636F
:1000D0006F6D756E69636163696F6E2073657269B8
:1000E00065004D3131343B202D207265706F727484
:1000F00020706F736974696F6E20616E642066652D
:10010000656472617465004D3130303B202D207480
:100110006869732068656C70206D657373616765CD
:10012000004D32323B202D207475726E207269674B
:100130006874206C61736572206F6666004D3231A1
:100140003B202D207475726E207269676874206C74
:1001500061736572206F6E004D32303B202D20742C
:1001600075726E206C656674206C61736572206FA9
:100170006666004D31393B202D207475726E206CFF
:10018000656674206C61736572206F6E004D313846
:100190003B202D2064697361626C65206D6F746F04
:1001A0007273004D31373B202D20656E61626C65A6
:1001B000206D6F746F727300473035205B44286781
:1001C0007261646F73295D3B202D206170756E74C0
:1001D00061204F6A6F20706F6E6572206573706169
:1001E00063696F20656E74726520442079206469AC
:1001F0007200473031205B54287374657073295D39
:10020000205B4C287374657073295D205B462866FB
:1002100065656472617465295D3B202D206D6F7684
:100220006500473030205B54287374657073295D16
:100230003B202D206C696E656172206D6F766500C4
:10024000436F6D6D616E64733A0046616253636122
:100250006E20472D434F44444520496E74657270AB
:1002600072657465722056657273696F6E3A20000C
:100270000000000800020100000304070000000065
:100280000000000001020408102040800102040860
:1002900010200102040810200404040404040404CF
:1002A0000202020202020303030303030000000030
:1002B000250028002B0000000000240027002A0051
:1002C0004E414E494E495459494E46CDCCCC3D0A3B
:1002D000D7233C17B7D13877CC2B329595E6241F1E
:1002E000B14F0A000020410000C84200401C4620D7
:1002F000BCBE4CCA1B0E5AAEC59D7400710AFE0DE1
:1003000066119916070E11241FBECFEFD8E0DEBF8D
:10031000CDBF11E0A0E0B1E0E0E0F4E402C0059060
:100320000D92AC36B107D9F722E0ACE6B1E001C0DE
:100330001D92A13FB207E1F712E0C4E0D3E004C090
:100340002297FE010E94931DCC3FD107C9F70E945E
:10035000861A0C94F3210C9400000F931F93DC0178
:1003600012960C9110E009301105C0F5F801EC5C13
:10037000FF4F0C94911DDC01ED91FC910084F185FF
:10038000E02D29C0DC01ED91FC910284F385E02D84
:1003900022C0DC01ED91FC910484F585E02D1BC0A9
:1003A000DC01ED91FC910684F785E02D14C0DC01A1
:1003B000ED91FC910088F189E02D0DC0DC01ED91FB
:1003C000FC910288F389E02D06C0DC01ED91FC91DF
:1003D0000488F589E02D1F910F9109941F910F91C9
:1003E0000895CF93DF93EC01CB01BA0126E030E012
:1003F00040E050E00E94721D623071058105910558
:1004000059F18CF46115710581059105F1F06130A8
:10041000710581059105C1F5E881F9810480F581B7
:10042000E02D65E02DC0643071058105910511F165
:10043000D4F0653071058105910531F5E881F981C8
:100440000480F581E02D66E01BC0E881F98104801D
:10045000F581E02D64E014C0E881F9810480F58124
:10046000E02D61E00DC0E881F9810480F581E02D87
:1004700063E006C0E881F9810480F581E02D62E047
:10048000CE01DF91CF910994DF91CF910895CF9361
:10049000DF93477055276627772741505109DC01C4
:1004A000CD91DC914730510528F4435C5F4FFA0150
:1004B0000C94911DEC81FD8161E01BC0EC81FD81FC
:1004C00065E017C0EC81FD8164E013C0EC81FD8123
:1004D00066E00FC0EC81FD8162E00BC0EC81FD8124
:1004E0006AE007C0EC81FD8168E003C0EC81FD811A
:1004F00069E0DF91CF910994AF92BF92DF92EF92C2
:10050000FF920F931F93CF93DF931F92CDB7DEB768
:100510008C01FC018281843041F0883031F08330DD
:1005200031F0863021F022E003C024E001C023E056
:10053000A12CB12CE62EF12CDD24D394F801EA0D88
:10054000FB1DC7010A2C02C0959587950A94E2F716
:10055000678180FD6D25838129830E94BC14FFEF94
:10056000AF1ABF0A2981A21648F30F90DF91CF91ED
:100570001F910F91FF90EF90DF90BF90AF90089583
:100580000F931F93CF93DF93EC01E881F9810480EF
:10059000F581E02D8C010D5B1F4FD8018C918823D4
:1005A00011F062E001C060E0CE010995E881F981B7
:1005B0000480F581E02DD8018C91882311F063E04F
:1005C00001C061E0CE0109958BA59CA50E94141481
:1005D000E881F9810480F581E02DD8018C91882390
:1005E00011F062E001C060E0CE01DF91CF911F9178
:1005F0000F910994CF93DF93EC0120E030E0A90143
:100600006B897C898D899E890E944A1C18161CF46E
:10061000EFA5F8A902C0E9A9FAA9DF91CF91099441
:100620004370552766277727DC01ED91FC91048004
:10063000F581E02D423051056105710571F04330BF
:1006400051056105710559F041305105610571058C
:1006500011F062E005C063E003C061E001C060E04A
:100660000994CF93DF93EC01CB01BA0123E030E092
:1006700040E050E00E94721D6130710581059105D6
:1006800081F0623071058105910591F0672B682B2F
:10069000692BC1F4E881F9810480F581E02D64E0E3
:1006A0000DC0E881F9810480F581E02D61E006C08C
:1006B000E881F9810480F581E02D62E0CE01DF91CF
:1006C000CF910994DF91CF91089543705527662704
:1006D0007727DC01ED91FC910480F581E02D42301B
:1006E00051056105710571F04330510561057105D2
:1006F00059F0413051056105710511F065E005C003
:1007000066E003C06AE001C069E00994CF93DF931B
:10071000EC018A81882381F0E881F9810480F581E8
:10072000E02D60E0CE0109958EA58F3F29F06DA5E3
:10073000DF91CF910C94BC14DF91CF910895CF93AA
:10074000DF93EC018A81882351F161E08B810E9463
:10075000831461E08C810E9483148A81843011F0BB
:10076000883039F461E08D810E94831461E08E81CC
:1007700006C0833011F0863021F461E08D810E9443
:1007800083148EA58F3F59F061E00E9483146DA5FC
:1007900081E068278EA5DF91CF910C94BC14DF9186
:1007A000CF910895CF92DF92EF92FF920F931F9314
:1007B000CF93DF93EC014BA15CA16DA17EA1452BF2
:1007C000462B472B09F44DC00E94B7136B017C01E7
:1007D0000FA118A529A53AA54BA15CA16DA17EA1E9
:1007E000400F511F621F731F4017510762077307A5
:1007F00030F0C416D506E606F70658F405C0C41650
:10080000D506E606F70668F1C016D106E206F3063D
:1008100040F5FE01ED5BFF4F80814B855C856D856A
:100820007E85882329F04F5F5F4F6F4F7F4F04C055
:1008300041505109610971094B875C876D877E873B
:10084000E881F9814B855C856D857E850680F78121
:10085000E02DCE010995CFA2D8A6E9A6FAA681E09F
:1008600001C080E0DF91CF911F910F91FF90EF9039
:10087000DF90CF9008950F931F93FC0167857089D7
:10088000818992890385148525853685601B710BC6
:10089000820B930B1F910F9108952F923F924F92CD
:1008A0005F926F927F928F929F92AF92BF92CF9200
:1008B000DF92EF92FF920F931F93CF93DF9300D0BD
:1008C00000D0CDB7DEB71C01FC0187849088A188D9
:1008D000B28883859485A585B685881A990AAA0A5F
:1008E000BB0A63897489858996899B01AC010E9442
:1008F0004E1C6B017C01F101638D748D858D968D8D
:100900009B01AC010E94971A9B01AC01C701B60183
:100910000E94FF1A0E94671B81149104A104B10474
:10092000A1F462307105810591050CF07CC0F101E4
:1009300013A214A215A216A2138A148A158A168A63
:1009400013AA14AA15AA16AA03C1F10103A914A98E
:1009500025A936A9ED5BFF4F181419041A041B04CE
:10096000FCF410161106120613064CF468157905EE
:100970008A059B054CF52081211155C025C0011524
:1009800011052105310509F44EC0681579058A0560
:100990009B050CF048C08081882309F444C037C00F
:1009A0001016110612061306F4F4002711279801F9
:1009B000081919092A093B0960177107820793076B
:1009C0001CF42081222379F19B01AC01882799270F
:1009D000DC01821B930BA40BB50BF10183AB94AB31
:1009E000A5ABB6AB20C00115110521053105D9F025
:1009F000CC24DD247601C818D908EA08FB086C1558
:100A00007D058E059F057CF4808181110CC0309599
:100A10002095109501951F4F2F4F3F4FF10103ABCC
:100A200014AB25AB36ABF101C3A8D4A8E5A8F6A852
:100A300081010D5B1F4FC114D104E104F10491F455
:100A400087A990ADA1ADB2AD83AF94AFA5AFB6AF5E
:100A500081E0181419041A041B040CF080E0F8015A
:100A6000808340C0F10183AC94ACA5ACB6ACA501C9
:100A70009401C501B4010E94971A2B013C01C701E2
:100A8000B6010E949A1B20E030E040E850E40E944A
:100A90004E1C20E030E040E85FE30E94971A9B0183
:100AA000AC01C301B2010E94FF1A9B01AC01C50158
:100AB000B4010E94961A2B013C01F101FF9680803F
:100AC0009180A280B3809401A5010E944A1C18164F
:100AD00014F442015301C401D501F10183AF94AF75
:100AE000A5AFB6AFFFEFCF1ADF0AEF0AFF0AF10199
:100AF000C3AAD4AAE5AAF6AA23AD34AD45AD56AD36
:100B0000CA01B90129833A834B835C830E946C1B21
:100B1000F10163A374A385A396A329813A814B8134
:100B20005C8160E074E284E799E40E94FF1AF101BD
:100B3000638B748B858B968BF8012081211108C003
:100B4000DC01CB01B058F101838B948BA58BB68B64
:100B50000F900F900F900F90DF91CF911F910F91F9
:100B6000FF90EF90DF90CF90BF90AF909F908F90CD
:100B70007F906F905F904F903F902F9008950F93CC
:100B80001F93FC01078510892189328904171507F5
:100B90002607370741F04787508B618B728B1F9177
:100BA0000F910C944D041F910F9108950F931F9373
:100BB000FC010385148525853685400F511F621F72
:100BC000731F1F910F910C94BF054F925F926F920C
:100BD0007F928F929F92AF92BF92CF92DF92EF92CD
:100BE000FF92CF93DF93EC016A017B018B8C9C8C8D
:100BF000AD8CBE8C9A01AB01C501B4010E94FB1AF9
:100C0000882309F449C06BA97CA98DA99EA90E94DB
:100C10009A1B2B013C01A7019601C501B4010E945A
:100C2000FF1A9B01AC01C301B2010E944E1C0E943D
:100C3000671B6BAB7CAB8DAB9EABA701960160E0F5
:100C400070E080E090E40E94FF1A0E94B51C26E547
:100C50003EE04DE25FE30E944E1C20E034E244E7B8
:100C600059E40E944E1C6FAB78AF89AF9AAFCB8E20
:100C7000DC8EED8EFE8ECE01DF91CF91FF90EF9056
:100C8000DF90CF90BF90AF909F908F907F906F90AC
:100C90005F904F900C944D04DF91CF91FF90EF90B7
:100CA000DF90CF90BF90AF909F908F907F906F908C
:100CB0005F904F9008950F931F93CF93DF93EC01B4
:100CC0000E94D203882319F0CE010E944D0420E037
:100CD00030E0A9016B897C898D899E890E94FB1A6D
:100CE000811110C081E00F85188929893A894B85C7
:100CF0005C856D857E85041715072607370719F46F
:100D000080E001C081E0DF91CF911F910F910895A4
:100D10008F929F92AF92BF92CF92EF920F93CF9309
:100D2000DF93EC0184E191E0998388836A831B86D9
:100D30001C861D861E861F86188A198A1A8A1B8A97
:100D40001C8A1D8A1E8A812C912C80E8A82E8FE394
:100D5000B82E8F8A988EA98EBA8E1B8E1C8E1D8EF1
:100D60001E8E8F8E98A2A9A2BAA21BA21CA21DA29F
:100D70001EA281E090E09CA78BA78FEF8EA71FA2F9
:100D800018A619A61AA64B832C830D83EE821BAAE4
:100D90001CAA1DAA1EAA1FAA18AE19AE1AAE1BAE17
:100DA0001CAE1DAE1EAEFE01FF9680829182A28215
:100DB000B382349610821F82188619861A86CC2038
:100DC00019F0CE010E949F0340E050E060E87FE30D
:100DD000CE01DF91CF910F91EF90CF90BF90AF9068
:100DE0009F908F900C94E505CF92DF92EF92FF9247
:100DF0000F931F93CF93DF93EC016A017B019A015C
:100E0000AB016F89788D898D9A8D0E94FB1A88239A
:100E100009F446C0CF8AD88EE98EFA8E8E01015C25
:100E20001F4FA701960160E074E284E799E40E94F5
:100E3000FF1AF80160837183828393838BA99CA935
:100E4000ADA9BEA9181619061A061B064CF56B8922
:100E50007C898D899E899B01AC010E944E1C6B018F
:100E60007C016B8D7C8D8D8D9E8D9B01AC010E94D4
:100E7000971A9B01AC01C701B6010E94FF1A0E949C
:100E8000671B6BAB7CAB8DAB9EABCE01DF91CF9183
:100E90001F910F91FF90EF90DF90CF900C944D0435
:100EA000DF91CF911F910F91FF90EF90DF90CF9046
:100EB0000895CF92DF92EF92FF92CF93DF93EC01F0
:100EC0006A017B0120E030E0A901C701B6010E9460
:100ED000FB1A882359F0B701A601CE01DF91CF910B
:100EE000FF90EF90DF90CF900C94E505DF91CF91CC
:100EF000FF90EF90DF90CF9008956F927F928F9246
:100F00009F92AF92BF92CF92DF92EF92FF920F9398
:100F10001F93CF93DF93EC013A018B012B893C891E
:100F20004D895E89B301C8010E94FB1A882309F428
:100F300054C0CF88D88CE98CFA8C46015701B7FA97
:100F4000B094B7F8B094A5019401B301C8010E9410
:100F5000FB1A87FD0BC0A7019601B301C8010E94CF
:100F60004A1C18162CF43601870102C03401850191
:100F700020E030E0A901B301C8010E94FB1A8111F1
:100F800005C01BA21CA21DA21EA221C09301A80184
:100F900060E074E284E799E40E94FF1A9F770E9460
:100FA0006C1B6BA37CA38DA39EA37E0183E4E80E40
:100FB000F11CDD24D39420E030E0A901B301C80185
:100FC0000E944A1C18160CF0D12CF701D082C301E4
:100FD000D8018B8B9C8BAD8BBE8BDF91CF911F91FA
:100FE0000F91FF90EF90DF90CF90BF90AF909F90C8
:100FF0008F907F906F900895CF93DF93EC01CE0197
:101000000E945B068111FBCFDF91CF9108950F9372
:101010001F93FC01078510892189328943855485F6
:1010200065857685041715072607370779F0ED5B88
:10103000FF4F40175107620773071CF421E020831C
:1010400001C010821F910F910C94D20380E01F9178
:101050000F910895CF93DF93EC01888599850097D0
:1010600011F00E94491E8E8187FD05C060E0DF916E
:10107000CF910C948314DF91CF910895CF93DF9398
:10108000EC018E8187FD07C061E00E94831460E05F
:101090008E810E94BC1481E08983DF91CF910895F5
:1010A000EF92FF920F931F93CF93DF93EC017B019D
:1010B00088859985009711F00E94491E9D858A8533
:1010C000981303C083E090E002C084E090E08E9D1E
:1010D00080018F9D100D9E9D100D11241D830C838A
:1010E000C8010E94B11D99878887009741F0A80127
:1010F00060E070E00E944C21FB82EA8204C01D8205
:101100001C821B821A82DF91CF911F910F91FF9059
:10111000EF900895FC0121E095858285981320E0E9
:10112000CB0136E0969587953A95E1F7482F4370C5
:101130004587CB0154E0969587955A95E1F7382F6E
:1011400033703287CB0196958795969587958370F6
:101150008387862F8370848781E06F3F710511F04C
:1011600008F080E0808380859185892B51F091E0A3
:10117000431390E0921729F062817381CF010C94A0
:1011800050080895CF92DF92EF92FF920F931F9332
:10119000CF93DF93CDB7DEB729970FB6F894DEBFB4
:1011A0000FBECDBF8C01DC0118968D919C911997D3
:1011B000892B09F49AC00E94B713F801C684D7841A
:1011C000E088F1886C197D098E099F0962337105E9
:1011D0008105910580F3F894848195819A838983B0
:1011E000A085B1857D01EFEFEE1AFE0A8C9189870B
:1011F000D8019C9152960D90BC91A02DF801848944
:10120000992309F42EC09C91982B98879C918095E6
:1012100089238F838F818E8388E08D8358856F81AA
:1012200049853D812E8189819A81F7015C9347FD33
:10123000252F3A952C93262F39F0441F00C000002B
:101240006C93000000C0F2CF38E041916C93000035
:10125000019761F7F801B38BA28B49873D832E83F9
:1012600038C09C91982B98879C91809589238F8377
:101270008F818C8388E08B8358856F8149853B8182
:101280002C8189819A81F7015C9347FD252F00C04D
:1012900000C02C9300C000C000C000C000C06C9310
:1012A0000000262F3A9541F0441F000000C000C006
:1012B00000C000C000C0E8CF38E0419100C06C938E
:1012C00000C0019709F7F801B38BA28B49873B83D4
:1012D0002C839A83898378940E94B713D8011E9631
:1012E0006D937D938D939C93519729960FB6F894A7
:1012F000DEBF0FBECDBFDF91CF911F910F91FF9049
:10130000EF90DF90CF9008951F93CF93DF93EC0180
:10131000162F8981882331F08E8187FD03C060E01C
:101320000E9483141E838981882341F061E0812F0C
:101330000E94831460E0812F0E94BC14812F90E0F2
:10134000FC01E856FD4FE491F0E0EE0FFF1FE4557D
:10135000FD4F259134913B8B2A8BFC01EC57FD4FBF
:1013600084918C8BDF91CF911F910895EF92FF9222
:101370000F931F93CF93DF931F92CDB7DEB77C01FE
:101380008B01FC0111821782118610861686178642
:10139000108A118AB90149830E948A08B801C701DD
:1013A0000E9450084981642FC7010F90DF91CF91AF
:1013B0001F910F91FF90EF900C948409CF92DF92D0
:1013C000EF92FF920F931F93CF93DF93FC018281E3
:1013D00093816817790708F04DC0CA01AA27BB2777
:1013E000182FC32ED42EE52EFF24DC2DC22F07810B
:1013F000002361F0809FC0011124192FC09E60015D
:101400001124DD2D209FC0011124C92FF584828570
:10141000A085B185F81208C0CB01880F991F860FEF
:10142000971F8A0F9B1F17C0CB01880F991F880F2A
:10143000991F8A0F9B1F452F552766277727DC01A9
:10144000AF0DB11D002329F0409F90011124232FDF
:1014500001C0242F2C932285DC01A20FB11D1C9307
:101460002385DC01A20FB11DDC932485FC01E20F72
:10147000F11DC083DF91CF911F910F91FF90EF90ED
:10148000DF90CF900895962F50E060E070E0592BE8
:10149000682BCB01BA01089526E040E051EE60E0F0
:1014A00070E08EE492E00E94D5150E940B0E0E941F
:1014B000510E0E94CF0A0E94450E0E944D0E8AE0F6
:1014C00090E090930F0180930E0166E070E08CE64F
:1014D00091E00E94CF1267E570E08CE691E00C94F9
:1014E00008138CE691E00C943512CF938EE492E0D1
:1014F0000E94F2141816190664F58EE492E00E9418
:101500000B15C82F682F8EE492E00E944D17209192
:101510007C0130917D012F3331055CF4A9014F5FCF
:101520005F4F50937D0140937C01F901E258FE4FDB
:10153000C083CA3011F0CD30C9F6E0917C01F09142
:101540007D01E258FE4F10820E94EA0B0E94F40DCA
:10155000CDCFCF910C944611FF920F931F93CF9351
:10156000DF93182F062FF42EC0E0D0E04F2D602F10
:10157000812F0E94430A9B01AC01BE018EEB91E0DA
:101580000E94DE092196CC30D10581F78EEB91E0E7
:10159000DF91CF911F910F91FF900C94C2088EEBB9
:1015A00091E00C943E08FF920F931F93CF93DF932B
:1015B000F82E8B01C0917C01D0917D01C258DE4F85
:1015C000EEE7F1E03097C9F090819923B1F0EC1784
:1015D000FD0798F49F1109C0CF010196DF91CF91CB
:1015E0001F910F91FF900C94052160E270E0CF01F4
:1015F0000E945321FC013196E5CFC801DF91CF91C4
:101600001F910F91FF900895CF92DF92EF92FF927A
:101610006A017B01BC018EE492E00E944B1722E03C
:1016200030E0B701A6018EE492E0FF90EF90DF90EA
:10163000CF900C9424196AE472E08EE492E00E9448
:101640001A176AE271E08EE492E00E947C1760E46F
:1016500072E08EE492E00E94581762E272E08EE43B
:1016600092E00E94581762EF71E08EE492E00E94CF
:10167000581768EB71E08EE492E00E94581763EA15
:1016800071E08EE492E00E9458176DE871E08EE4FC
:1016900092E00E94581763E771E08EE492E00E94A6
:1016A000581768E571E08EE492E00E9458176DE3E8
:1016B00071E08EE492E00E94581761E271E08EE4DE
:1016C00092E00E94581767E071E08EE492E00E9479
:1016D000581762EE70E08EE492E00E94581763EBB8
:1016E00070E08EE492E00C9458176AE271E08EE4A8
:1016F00092E00C947C1740917401509175016091B7
:101700007601709177018DE391E00E94040B409186
:1017100070015091710160917201709173018BE3BE
:1017200091E00E94040B40910A0150910B016091DD
:101730000C0170910D018FE391E00E94040B8091E8
:101740006F01882319F065E371E002C069E371E07D
:101750008EE492E00C947C17CF93DF93CDB7DEB785
:101760002C970FB6F894DEBF0FBECDBF40E050E01F
:1017700061E677E481E491E00E94040B2AE040E016
:1017800051EE60E070E0CE0107960E94191A63E402
:1017900071E0CE0101960E94EB19BE01695F7F4F97
:1017A000CE0101960E94721ABC018EE492E00E9462
:1017B0006A17CE0101960E947D19CE0107960E94FC
:1017C0007D192C960FB6F894DEBF0FBECDBFDF910A
:1017D000CF910895AF92BF92CF92DF92EF92FF9296
:1017E0000F931F93CF93DF93C0917E01CB3309F406
:1017F000F0C16FEF7FEF8EE40E94D30AAA2797FD16
:10180000A095BA2F8F3F2FEF9207A207B20709F4D6
:1018100066C0CE3409F063C04091780150917901DF
:1018200060917A0170917B0184179507A607B7072D
:1018300019F067EA70E024C06AE270E08EE791E098
:101840000E945321892B09F4C4C1EEE7F1E0C0E006
:10185000CF018E57914021912A3211F0C227F8CF43
:1018600060E070E081589E4F0E94A21FDD27C7FDF7
:10187000D0950E94671BC617D707F1F06AE970E0A0
:101880008EE492E00E941A174091780150917901FC
:1018900060917A0170917B012AE030E08EE492E061
:1018A000DF91CF911F910F91FF90EF90DF90CF903C
:1018B000BF90AF900C942718809178019091790196
:1018C000A0917A01B0917B010196A11DB11D809379
:1018D000780190937901A0937A01B0937B016FEF27
:1018E0007FEF87E40E94D30A8830910508F08AC010
:1018F000FC01EC5BFF4F0C94911D60E070E086E40E
:101900000E94D30A8C0160E070E08CE40E94D30A4C
:101910007C0160E070E084E50E94D30AEC01B8012C
:10192000882777FD8095982F0E949A1B9B01AC0118
:1019300001E0B701CE010E94E71064C060E070E0F2
:1019400086E40E94D30A8C0160E070E08CE40E947F
:10195000D30A7C0160E070E084E50E94D30AEC01C8
:10196000B801882777FD8095982F0E949A1B9B01CC
:10197000AC0100E0DECF67E570E084E40E94D30AAA
:10198000EC01BC01882777FD8095982F0E949A1B57
:101990006093D5017093D6018093D7019093D801BD
:1019A000CE0164EB70E00E943C1D9093D4018093C3
:1019B000D301BC01882777FD8095982F1F921F9235
:1019C0001F9224EB2F93A12CB12C650114EBE12E77
:1019D000F12C00E010E020E030E0A9010E9436196F
:1019E0007093D4016093D3018CE691E00E940813B8
:1019F0000F900F900F900F9005C00E945F1102C0D2
:101A00000E9463116FEF7FEF8DE40E94D30A85314E
:101A1000910509F494C00CF58131910509F472C067
:101A200044F48430910509F44AC0059709F44BC089
:101A3000D0C08331910509F473C00CF074C00E94CA
:101A4000450EDF91CF911F910F91FF90EF90DF90A6
:101A5000CF90BF90AF900C944D0E8E36910509F447
:101A60008CC0A4F48631910509F47BC084369105BD
:101A700009F0AFC0DF91CF911F910F91FF90EF90D0
:101A8000DF90CF90BF90AF900C941B0B883C9105DA
:101A900009F487C08C3221E0920709F48EC08237A6
:101AA000910509F096C0DF91CF911F910F91FF90A2
:101AB000EF90DF90CF90BF90AF900C947B0B0E9483
:101AC0003A0E0E942B0E60E070E082E40E94D30A7E
:101AD0007C0160E070E087E40E94D30AEC0160E0E2
:101AE00070E082E50E94D30AA701BE01DF91CF9189
:101AF0001F910F91FF90EF90DF90CF90BF90AF902C
:101B00000C94AC0A0E94410EDF91CF911F910F916E
:101B1000FF90EF90DF90CF90BF90AF900C94490E64
:101B20000E94230E0EC0DF91CF911F910F91FF9065
:101B3000EF90DF90CF90BF90AF900C942B0E0E944F
:101B4000320E68EE73E080E090E0DF91CF911F915C
:101B50000F91FF90EF90DF90CF90BF90AF900C94DB
:101B6000DA13DF91CF911F910F91FF90EF90DF90EB
:101B7000CF90BF90AF900C943A0E60917801709125
:101B800079018EE40E94D30AAA2797FDA095BA2F67
:101B90008093780190937901A0937A01B0937B01AF
:101BA00018C0DF91CF911F910F91FF90EF90DF90C0
:101BB000CF90BF90AF900C94750BDF91CF911F9198
:101BC0000F91FF90EF90DF90CF90BF90AF900C946B
:101BD000AC0BDF91CF911F910F91FF90EF90DF90B1
:101BE000CF90BF90AF90089510927D0110927C012C
:101BF00068E970E08EE492E00C94581722E530E03A
:101C00004FE06CE070E08EEB91E00C94B6098EEB47
:101C100091E00C942A0861E089E00E94831461E05D
:101C20008AE00E94831461E08FE00E94831460E0E8
:101C30008FE00E94BC1460E089E00E94BC1460E068
:101C40008AE00C94BC1461E08AE00E94BC1481E03C
:101C50008093D901089560E08AE00E94BC1410923C
:101C6000D901089561E089E00E94BC1481E080936D
:101C7000D901089560E089E00E94BC141092D90156
:101C8000089560E082E00C94BC1461E082E00C9462
:101C9000BC1460E085E00C94BC1461E085E00C9419
:101CA000BC1461E083E10E94831460E083E10E9440
:101CB000BC1461E082E00E94831461E085E00E9430
:101CC000831461E083E00E94831461E086E00E9457
:101CD000831461E083E10E94BC1440E050E06AEFAD
:101CE00074E48BED91E00E94F40640E050E06FE276
:101CF00074E48BED91E00E947D070C94450E6F9289
:101D00007F928F929F92AF92BF92CF92EF920F935A
:101D1000CF93DF93CDB7DEB7C454D1090FB6F89493
:101D2000DEBF0FBECDBF3C014B015A01CC24C39492
:101D300045E0E42E04E023E042E064E0CE010196B9
:101D40000E9488068AE06816710409F0CAC0809172
:101D5000DD018B838091DE019091DF01A091E00194
:101D6000B091E1018C839D83AE83BF838091E201BA
:101D70009091E301A091E401B091E50188879987F2
:101D8000AA87BB878091E6019091E701A091E801C5
:101D9000B091E9018C879D87AE87BF878091EA016A
:101DA0009091EB01A091EC01B091ED01888B998BA2
:101DB000AA8BBB8B8091EE019091EF01A091F00175
:101DC000B091F1018C8B9D8BAE8BBF8B8091F2011A
:101DD0009091F301A091F401B091F501888F998F52
:101DE000AA8FBB8F8091F6019091F701A091F80125
:101DF000B091F9018C8F9D8FAE8FBF8F8091FA01CA
:101E00009091FB01A091FC01B091FD0188A399A3E1
:101E1000AAA3BBA38091FE019091FF01A0910002B3
:101E2000B09101028CA39DA3AEA3BFA38091020237
:101E300090910302A0910402B091050288A799A78E
:101E4000AAA7BBA780910602909107029DA78CA725
:101E5000809108028EA7809109028FA780910A02C3
:101E600090910B0299AB88AB80910C0290910D027E
:101E70009BAB8AAB80910E0290910F02A091100251
:101E8000B09111028CAB9DABAEABBFAB8091120297
:101E900090911302A0911402B091150288AF99AFEE
:101EA000AAAFBBAF8091160290911702A0911802C1
:101EB000B09119028CAF9DAFAEAFBFAF40911A0287
:101EC00050911B0260911C0270911D0224964CAF30
:101ED0005DAF6EAF7FAF249780911E0225968FAFC6
:101EE0002597A401440F551F440F551F662757FD22
:101EF0006095762FCE0101960E94D605B501882700
:101F000077FD8095982F0E949A1BAB01BC01CE01F2
:101F100001960E947D0740E050E06AEF73E4CE0135
:101F200001960E945907CE0101960E943B04672B3F
:101F3000682B692B29F0CE0101960E94FC07F3CF94
:101F4000CC5BDF4F0FB6F894DEBF0FBECDBFDF9185
:101F5000CF910F91EF90CF90BF90AF909F908F90C7
:101F60007F906F9008952F923F924F925F926F9261
:101F70007F928F929F92AF92BF92CF92EF920F93E8
:101F80001F93CF93DF93CDB7DEB7C454D1090FB6FB
:101F9000F894DEBF0FBECDBF3C011A012B014801F2
:101FA0005901CC24C39455E0E52E04E023E042E03F
:101FB00064E0CE0101960E9488068AE068167104EA
:101FC00009F0CAC08091DD018B838091DE01909180
:101FD000DF01A091E001B091E1018C839D83AE838C
:101FE000BF838091E2019091E301A091E401B0915F
:101FF000E50188879987AA87BB878091E601909140
:10200000E701A091E801B091E9018C879D87AE8737
:10201000BF878091EA019091EB01A091EC01B09112
:10202000ED01888B998BAA8BBB8B8091EE019091EF
:10203000EF01A091F001B091F1018C8B9D8BAE8BE3
:10204000BF8B8091F2019091F301A091F401B091C6
:10205000F501888F998FAA8FBB8F8091F60190919F
:10206000F701A091F801B091F9018C8F9D8FAE8F8F
:10207000BF8F8091FA019091FB01A091FC01B0917A
:10208000FD0188A399A3AAA3BBA38091FE0190910F
:10209000FF01A0910002B09101028CA39DA3AEA309
:1020A000BFA38091020290910302A0910402B0911B
:1020B000050288A799A7AAA7BBA7809106029091BD
:1020C00007029DA78CA7809108028EA78091090224
:1020D0008FA780910A0290910B0299AB88AB8091F7
:1020E0000C0290910D029BAB8AAB80910E029091F5
:1020F0000F02A0911002B09111028CAB9DABAEAB60
:10210000BFAB8091120290911302A0911402B09182
:10211000150288AF99AFAAAFBBAF8091160290911C
:102120001702A0911802B09119028CAF9DAFAEAF0B
:10213000BFAF80911A0290911B02A0911C02B09136
:102140001D0224968CAF9DAFAEAFBFAF2497809198
:102150001E0225968FAF259720E030E040E850E43E
:10216000C201B1010E944E1C0E94671BAB01BC0161
:10217000CE0101960E94D605B501A401CE010196BB
:102180000E947D07CE0101960E943B04672B682BBD
:10219000692B29F0CE0101960E940708F3CFCC5B92
:1021A000DF4F0FB6F894DEBF0FBECDBFDF91CF91EA
:1021B0001F910F91EF90CF90BF90AF909F908F9015
:1021C0007F906F905F904F903F902F900895AF92C7
:1021D000BF92CF92DF92EF92FF920F931F93CF9314
:1021E000DF935C01EB0169017A01002311F1009793
:1021F00051F0CA01B9010E94671BAB01B5018AE029
:1022000090E00E947F0E2097B1F1C701B6010E94B5
:10221000671BAB01BE018BE090E0DF91CF911F9176
:102220000F91FF90EF90DF90CF90BF90AF900C9404
:102230007F0E009779F0BC01882777FD8095982F55
:102240000E949A1BAB01BC01970186018AE090E0D5
:102250000E94B30F209779F0BE01882777FD809503
:10226000982F0E949A1BAB01BC01970186018BE05D
:1022700090E00E94B30FDF91CF911F910F91FF90DB
:10228000EF90DF90CF90BF90AF9008958091DA01EA
:102290008823A1F040E050E06AE774E48BED91E020
:1022A0000E947D074AE050E060E070E08BED91E035
:1022B0000E94D6058BED91E00C94D203089581E045
:1022C0008093DA0108951092DA010895CF92EF9287
:1022D0000F93CC24C39465E0E62E04E024E043E0B1
:1022E00062E08BED91E00E9488060F91EF90CF9015
:1022F00008951F920F920FB60F9211242F933F93C0
:102300004F935F936F937F938F939F93AF93BF93FD
:10231000EF93FF938091200287FF05C01092850004
:10232000109284001AC020912002332727FD309597
:1023300080911F0290E0281739077CF480912002D9
:10234000992787FD9095FC01EE0FFF1FE80FF91FFD
:10235000EF5DFD4F808186FD15C0809120028F5F6B
:102360008093200220912002332727FD3095809111
:102370001F0290E028173907BCF4809120028C30AE
:102380005CF112C080912002992787FD9095FC0195
:10239000EE0FFF1FE80FF91FEF5DFD4F808160E03A
:1023A0008F730E94BC14D9CF8091840090918500D6
:1023B000049680349C4918F480E49CE905C080911F
:1023C0008400909185000496909389008093880002
:1023D0008FEF8093200238C02091840030918500D7
:1023E00080912002992787FD9095FC01EE0FFF1F39
:1023F000E80FF91FEF5DFD4F81819281820F931FDE
:10240000909389008093880080912002992787FD0E
:102410009095FC01EE0FFF1FE80FF91FEF5DFD4FD8
:10242000808186FF11C080912002992787FD9095B9
:10243000FC01EE0FFF1FE80FF91FEF5DFD4F8081DC
:1024400061E08F730E94BC14FF91EF91BF91AF9137
:102450009F918F917F916F915F914F913F912F91BC
:102460000F900FBE0F901F90189520911F022C30D7
:10247000A0F431E0320F30931F02FC012083822F41
:1024800090E0FC01EE0FFF1FE80FF91FEF5DFD4F1D
:1024900088EB9BE09283818308952FEFFC012083DA
:1024A0000895DF92EF92FF920F931F93CF93DF93E4
:1024B000EC01D62E7A01890188818C3008F066C043
:1024C00061E08D2D0E9483148881A82FB0E0FD016A
:1024D000EE0FFF1FEA0FFB1FEF5DFD4F2D2D2F733A
:1024E0009081907C922B908360E272E06E197F095C
:1024F00077FF02C06D5F7F4F7595679575956795FE
:10250000698340E659E0401B510B57FF02C04D5F05
:102510005F4F55954795559547954A836CE00E94C6
:102520001C1D9CE0899FB001112420E030E0A9012E
:10253000460F571FFA01EE0FFF1FE40FF51FEF5D67
:10254000FD4F908196FD16C02F5F3F4F2C30310517
:1025500071F781110FC01092800082E0809381009A
:102560001092850010928400B19A80916F00826071
:1025700080936F00888190E0FC01EE0FFF1FE80F51
:10258000F91FEF5DFD4F8081806480838881DF913A
:10259000CF911F910F91FF90EF90DF90089520E66B
:1025A00039E040E252E00C945112FC0180818C3001
:1025B00070F5918128E830E0291B310997FD3395AA
:1025C000220F331F220F331F621773077CF0928193
:1025D00028E532E0291B310997FD3395220F331F7F
:1025E000220F331F621773070CF49B01225031092D
:1025F000220F331F4FB7F89490E0FC01EE0FFF1F3E
:10260000E80FF91FEF5DFD4F328321834FBF08951F
:102610004F925F926F927F92AF92BF92CF92DF9272
:10262000EF92FF920F931F93CF93DF93EC016032F1
:1026300082E078070CF040C077FD06C0653B71056D
:102640002CF064EB70E002C060E070E0898128E863
:1026500030E0281B310987FD3395220F331F220FED
:10266000331F5901CC24B7FCC094DC2C882777FD9C
:102670008095982F2A8148E552E0421B510927FD99
:102680005395440F551F440F551F2A01662457FCCC
:102690006094762C7F926F925F924F9214EBE12EB2
:1026A000F12C00E010E020E030E0A9010E94361992
:1026B0000F900F900F900F90CE01DF91CF911F914F
:1026C0000F91FF90EF90DF90CF90BF90AF907F90F1
:1026D0006F905F904F900C94D5121F920F920FB68F
:1026E0000F9211242F933F938F939F93AF93BF9398
:1026F0008091460290914702A0914802B091490210
:102700003091450223E0230F2D3720F40196A11DBF
:10271000B11D05C026E8230F0296A11DB11D20930F
:1027200045028093460290934702A0934802B093DB
:10273000490280914A0290914B02A0914C02B091C3
:102740004D020196A11DB11D80934A0290934B0248
:10275000A0934C02B0934D02BF91AF919F918F9186
:102760003F912F910F900FBE0F901F9018953FB77C
:10277000F89480914A0290914B02A0914C02B09142
:102780004D0226B5A89B05C02F3F19F00196A11D4B
:10279000B11D3FBF6627782F892F9A2F620F711DB9
:1027A000811D911D42E0660F771F881F991F4A9572
:1027B000D1F708958F929F92AF92BF92CF92DF92FE
:1027C000EF92FF926B017C010E94B7134B015C01F9
:1027D000C114D104E104F104F1F00E94951A0E94A1
:1027E000B713681979098A099B09683E7340810506
:1027F000910570F321E0C21AD108E108F10888EED2
:10280000880E83E0981EA11CB11CC114D104E10400
:10281000F10429F7DDCFFF90EF90DF90CF90BF90CC
:10282000AF909F908F9008958230910538F0880F77
:10283000991F880F991F05970197F1F708957894CC
:1028400084B5826084BD84B5816084BD85B58260B5
:1028500085BD85B5816085BDEEE6F0E08081816053
:102860008083E1E8F0E01082808182608083808153
:1028700081608083E0E8F0E0808181608083E1EB2B
:10288000F0E0808184608083E0EBF0E08081816013
:102890008083EAE7F0E080818460808380818260C9
:1028A00080838081816080838081806880831092B2
:1028B000C1000895833081F028F4813099F082308E
:1028C000A1F008958730A9F08830B9F08430D1F4B0
:1028D000809180008F7D03C0809180008F778093EE
:1028E0008000089584B58F7702C084B58F7D84BD44
:1028F00008958091B0008F7703C08091B0008F7DE4
:102900008093B0000895CF93DF9390E0FC01EC57E3
:10291000FD4F2491FC01E856FD4F8491882349F135
:1029200090E0880F991FFC01EA54FD4FA591B491E6
:1029300084559D4FFC01C591D4919FB7611108C08A
:10294000F8948C91209582238C93888182230AC0ED
:10295000623051F4F8948C91322F309583238C930C
:102960008881822B888304C0F8948C91822B8C936D
:102970009FBFDF91CF9108950F931F93CF93DF9364
:102980001F92CDB7DEB7282F30E0F901E059FD4F97
:102990008491F901EC57FD4F1491F901E856FD4F70
:1029A00004910023C9F0882321F069830E945A14FE
:1029B0006981E02FF0E0EE0FFF1FE455FD4FA59178
:1029C000B4919FB7F8948C91611103C01095812345
:1029D00001C0812B8C939FBF0F90DF91CF911F91EE
:1029E0000F910895FC01818D228D90E0805C9F4FB6
:1029F000821B91098F7399270895FC01918D828D17
:102A0000981731F0828DE80FF11D858D90E00895C3
:102A10008FEF9FEF0895FC01918D828D981761F0E3
:102A2000828DDF01A80FB11D5D968C91928D9F5F05
:102A30009F73928F90E008958FEF9FEF08958FE836
:102A400096E1892B49F080E090E0892B29F00E94E3
:102A50008F1681110C9400000895FC01848DDF0114
:102A6000A80FB11DA35ABF4F2C91848D90E0019601
:102A70008F739927848FA689B7892C93A089B189F0
:102A80008C9180648C93938D848D981306C00288FA
:102A9000F389E02D80818F7D80830895CF93DF932C
:102AA000EC01888D8823C9F0EA89FB89808185FD46
:102AB00005C0A889B9898C9186FD0FC00FB607FCA7
:102AC000F5CF808185FFF2CFA889B9898C9185FFE8
:102AD000EDCFCE010E942D15E7CFDF91CF91089564
:102AE000CF92DF92FF920F931F93CF93DF931F92AA
:102AF000CDB7DEB76C0181E0D60158968C9358971C
:102B00005B969C915B975C968C915C97981307C041
:102B10005096ED91FC915197808185FD2EC0F60174
:102B2000038D10E00F5F1F4F0F731127F02EF6017A
:102B3000848DF81211C00FB607FCF9CFD60150965C
:102B4000ED91FC915197808185FFF1CFC60169839A
:102B50000E942D156981EBCF838DE80FF11DE35A9B
:102B6000FF4F6083D6015B960C935B975296ED9175
:102B7000FC915397808180620CC0D6015696ED91EE
:102B8000FC91579760835096ED91FC91519780810D
:102B90008064808381E090E00F90DF91CF911F915E
:102BA0000F91FF90DF90CF900895BF92CF92DF9268
:102BB000EF92FF92CF93DF93EC016A017B01B22E7B
:102BC000E889F98982E08083411581EE5807610523
:102BD0007105A1F060E079E08DE390E0A701960136
:102BE0000E94501D215031094109510956954795C0
:102BF00037952795211580E1380798F0E889F989FC
:102C0000108260E874E88EE190E0A70196010E94CE
:102C1000501D215031094109510956954795379565
:102C20002795EC85FD853083EE85FF852083188E02
:102C3000EC89FD89B082EA89FB898081806180838B
:102C4000EA89FB89808188608083EA89FB898081A9
:102C500080688083EA89FB8980818F7D8083DF9112
:102C6000CF91FF90EF90DF90CF90BF9008951F928B
:102C70000F920FB60F9211242F938F939F93EF9380
:102C8000FF93E0915E02F0915F028081E091640227
:102C9000F091650282FD12C09081809167028F5F82
:102CA0008F7320916802821751F0E0916702F0E083
:102CB000E25BFD4F958F8093670201C08081FF9199
:102CC000EF919F918F912F910F900FBE0F901F90BA
:102CD00018951F920F920FB60F9211242F933F93C6
:102CE0004F935F936F937F938F939F93AF93BF9314
:102CF000EF93FF938EE492E00E942D15FF91EF91E8
:102D0000BF91AF919F918F917F916F915F914F9103
:102D10003F912F910F900FBE0F901F9018958EE44A
:102D200092E00E94F21421E0892B09F420E0822F26
:102D30000895109251021092500288EE93E0A0E0A4
:102D4000B0E08093520290935302A0935402B09348
:102D500055028FE491E090934F0280934E0285ECF0
:102D600090E090935B0280935A0284EC90E0909301
:102D70005D0280935C0280EC90E090935F02809310
:102D80005E0281EC90E0909361028093600282EC9D
:102D900090E0909363028093620286EC90E09093BF
:102DA000650280936402109267021092680210928A
:102DB000690210926A020895CF92DF92EF92FF9219
:102DC0000F931F93CF93DF937C016A01EB0100E027
:102DD00010E00C151D0571F06991D701ED91FC9182
:102DE0000190F081E02DC7010995892B19F00F5F43
:102DF0001F4FEFCFC801DF91CF911F910F91FF902F
:102E0000EF90DF90CF9008956115710581F0DB019F
:102E10000D900020E9F7AD0141505109461B570BB9
:102E2000DC01ED91FC910280F381E02D099480E0BA
:102E300090E00895EF92FF920F931F93CF93DF934B
:102E40008C017B01C0E0D0E0F701EC0FFD1F649125
:102E5000662359F0F801A081B181ED91FC91C80180
:102E60000995892B11F02196EFCFCE01DF91CF91FB
:102E70001F910F91FF90EF900895DC01ED91FC916F
:102E8000DB0114964D915C9115976D917C910280B8
:102E9000F381E02D09940C940417DC01ED91FC9171
:102EA0000190F081E02D09946BE571E00C9404171A
:102EB0000F931F93CF93DF93EC010E941A178C019D
:102EC000CE010E945417800F911FDF91CF911F9167
:102ED0000F9108950F931F93CF93DF93EC010E94FE
:102EE0003D178C01CE010E945417800F911FDF9176
:102EF000CF911F910F9108950F931F93CF93DF935D
:102F0000EC010E9404178C01CE010E945417800F1F
:102F1000911FDF91CF911F910F9108958F929F92F2
:102F2000AF92BF92DF92EF92FF920F931F93CF93D6
:102F3000DF93CDB7DEB7A1970FB6F894DEBF0FBE13
:102F4000CDBF7C01F42FD52ECB0119A2223008F47D
:102F50002AE08E010F5D1F4F822E912CA12CB12CE7
:102F60006F2F7D2DA50194010E94501DF22FD32EAD
:102F7000CA01015011096A3014F4E0E301C0E7E32B
:102F8000E60FD801EC93232B242B252B49F7B8010E
:102F9000C7010E940417A1960FB6F894DEBF0FBEBA
:102FA000CDBFDF91CF911F910F91FF90EF90DF90F8
:102FB000BF90AF909F908F900895CF92DF92EF9245
:102FC000FF920F931F93CF93DF93EC016A017B0174
:102FD0002115310579F4E881F9810190F081E02D26
:102FE000642FDF91CF911F910F91FF90EF90DF90B1
:102FF000CF9009942A303105E9F477FF1AC06DE2C9
:103000000E944D178C0144275527BA014C195D09C0
:103010006E097F092AE0CE010E948E17800F911F52
:10302000DF91CF911F910F91FF90EF90DF90CF90A4
:1030300008952AE0B701A601CE01DF91CF911F913B
:103040000F91FF90EF90DF90CF900C948E170F931D
:103050001F93CF93DF93EC010E94DD178C01CE010B
:103060000E945417800F911FDF91CF911F910F91F4
:1030700008954F925F926F927F928F929F92AF923C
:10308000BF92CF92DF92EF92FF920F931F93CF9355
:10309000DF93EC016A017B01B22E9A01AB01C701FB
:1030A000B6010E94F31C882319F06EE571E027C079
:1030B00026013701E89477F82FEF3FEF4FE75FE7FE
:1030C000C301B2010E94F31C81110DC02FEF3FEF2D
:1030D0004FE75FE7C301B2010E94FB1A18161CF408
:1030E00062E671E00CC02FEF3FEF4FE75FE4C701EE
:1030F000B6010E944A1C1816ACF466E671E0CE01D7
:10310000DF91CF911F910F91FF90EF90DF90CF90C3
:10311000BF90AF909F908F907F906F905F904F90F7
:103120000C9404172FEF3FEF4FE75FECC701B60198
:103130000E94FB1A87FDE1CF20E030E0A901C70122
:10314000B6010E94FB1A87FF0AC06DE2CE010E9401
:103150004D178C01F7FAF094F7F8F09402C000E0F4
:1031600010E0A12C60E070E080E09FE3AB1441F040
:1031700020E030E040E251E40E94FF1AA394F6CF31
:103180009B01AC01C701B6010E94971A6B017C013B
:103190000E946C1B2B013C010E94981B9B01AC01FF
:1031A000C701B6010E94961A6B017C012AE0B301A7
:1031B000A201CE010E948E17080F191FBB2039F003
:1031C0006AE671E0CE010E940417080F191F7B2CDC
:1031D000772041F120E030E040E251E4C701B60140
:1031E0000E944E1C6B017C010E94671B4B01AA24AC
:1031F00097FCA094BA2C2AE030E0B501A401CE01DE
:103200000E94DD17080F191FC501B4010E949A1B07
:103210009B01AC01C701B6010E94961A6B017C01AB
:103220007A94D6CFC801DF91CF911F910F91FF9073
:10323000EF90DF90CF90BF90AF909F908F907F9056
:103240006F905F904F9008950F931F93CF93DF93EC
:10325000EC010E9439188C01CE010E945417800F96
:10326000911FDF91CF911F910F9108954F925F921F
:103270006F927F92AF92BF92CF92DF92EF92FF92C6
:103280000F931F93CF93DF93CDB7DEB729013A0198
:10329000621B730B840B950B29893A894B895C89D6
:1032A0002A193B094C095D09298B3A8B4B8B5C8BA6
:1032B0009B01AC0169897A898B899C890E940C1DCC
:1032C000E418F50806091709A80197010E94721D64
:1032D0002A0D3B1D4C1D5D1DCA01B901DF91CF9127
:1032E0001F910F91FF90EF90DF90CF90BF90AF9024
:1032F0007F906F905F904F900895FC018081918145
:103300000C94491ECF93DF93EC018881998100973B
:1033100011F00E94491E198218821D821C821B8294
:103320001A82DF91CF9108950F931F93CF93DF936C
:10333000EC018B016F5F7F4F888199810E94D81EBD
:10334000009731F0998388831B830A8381E001C051
:1033500080E0DF91CF911F910F910895CF93DF937C
:10336000EC0188819981892B29F08A819B818617BC
:10337000970760F4CE010E949419882341F08C8154
:103380009D81892B19F4E881F981108281E0DF9118
:10339000CF910895EF92FF920F931F93CF93DF93F6
:1033A000EC017B018A01BA010E94AE19811104C0AF
:1033B000CE010E94821907C01D830C83B70188814A
:1033C00099810E945E21CE01DF91CF911F910F91D3
:1033D000FF90EF900895FC011182108213821282F7
:1033E000158214826115710559F0FB0101900020CE
:1033F000E9F7AF0141505109461B570B0C94CA190C
:103400000895CF93DF93EC016115710561F0FB0125
:1034100001900020E9F7AF0141505109461B570BBD
:103420000E94CA1902C00E948219CE01DF91CF9179
:1034300008950F931F93CF93DF93CDB7DEB7A29775
:103440000FB6F894DEBF0FBECDBF8C01CB01BA0121
:10345000F80111821082138212821582148230E0E8
:10346000AE014F5F5F4F0E946521BE016F5F7F4FCE
:10347000C8010E94011AA2960FB6F894DEBF0FBED3
:10348000CDBFDF91CF911F910F910895EF92FF92E1
:103490000F931F93CF93DF93EC017B010C811D8170
:1034A0006115710511F480E016C04115510591F0C8
:1034B000040F151FB8010E94AE198823A1F32881BB
:1034C00039818C819D81B701820F931F0E945E21FB
:1034D0001D830C8381E0DF91CF911F910F91FF90AD
:1034E000EF900895CF93DF93EC01FB014481558168
:1034F000608171810E94461A811103C0CE010E9431
:103500008219CE01DF91CF91089508950E941F1472
:103510000E94851A0E944C0ACFE1D5E10E94750AEB
:103520002097E1F30E941F15F9CF08955058BB274B
:10353000AA270ED075C166D130F06BD120F031F4DE
:103540009F3F11F41EF45BC10EF4E095E7FB51C1FF
:10355000E92F77D180F3BA176207730784079507BD
:1035600018F071F49EF58FC10EF4E0950B2EBA2F72
:10357000A02D0B01B90190010C01CA01A001112479
:10358000FF27591B99F0593F50F4503E68F11A1625
:10359000F040A22F232F342F4427585FF3CF4695B6
:1035A00037952795A795F0405395C9F77EF41F16D8
:1035B000BA0B620B730B840BBAF09150A1F0FF0FA2
:1035C000BB1F661F771F881FC2F70EC0BA0F621F8E
:1035D000731F841F48F4879577956795B795F7957E
:1035E0009E3F08F0B3CF9395880F08F09927EE0F10
:1035F000979587950895D9D008F481E008950CD067
:103600000FC107D140F0FED030F021F45F3F19F038
:10361000F0C0511139C1F3C014D198F39923C9F303
:103620005523B1F3951B550BBB27AA2762177307C8
:10363000840738F09F5F5F4F220F331F441FAA1F7C
:10364000A9F333D00E2E3AF0E0E830D0915050403C
:10365000E695001CCAF729D0FE2F27D0660F771FEA
:10366000881FBB1F261737074807AB07B0E809F0CC
:10367000BB0B802DBF01FF2793585F4F2AF09E3F61
:10368000510568F0B6C000C15F3FECF3983EDCF333
:10369000869577956795B795F7959F5FC9F7880FDA
:1036A000911D9695879597F90895E1E0660F771F2C
:1036B000881FBB1F621773078407BA0720F0621BBD
:1036C000730B840BBA0BEE1F88F7E095089504D0B6
:1036D0006894B111D9C00895BCD088F09F5790F07C
:1036E000B92F9927B751A0F0D1F0660F771F881F27
:1036F000991F1AF0BA95C9F712C0B13081F0C3D042
:10370000B1E00895C0C0672F782F8827B85F39F0DF
:10371000B93FCCF3869577956795B395D9F73EF485
:1037200090958095709561957F4F8F4F9F4F08952D
:10373000E89409C097FB3EF490958095709561954B
:103740007F4F8F4F9F4F9923A9F0F92F96E9BB2701
:103750009395F695879577956795B795F111F8CF7D
:10376000FAF4BB0F11F460FF1BC06F5F7F4F8F4FE8
:103770009F4F16C0882311F096E911C0772321F0DE
:103780009EE8872F762F05C0662371F096E8862F76
:1037900070E060E02AF09A95660F771F881FDAF7CD
:1037A000880F9695879597F90895990F0008550FFA
:1037B000AA0BE0E8FEEF16161706E807F907C0F0B7
:1037C00012161306E407F50798F0621B730B840BBF
:1037D000950B39F40A2661F0232B242B252B21F499
:1037E00008950A2609F4A140A6958FEF811D811D39
:1037F000089597F99F6780E870E060E008959FEF73
:1038000080EC089500240A94161617061806090677
:10381000089500240A941216130614060506089546
:10382000092E0394000C11F4882352F0BB0F40F4CE
:10383000BF2B11F460FF04C06F5F7F4F8F4F9F4F0E
:10384000089557FD9058440F551F59F05F3F71F090
:103850004795880F97FB991F61F09F3F79F08795F7
:103860000895121613061406551FF2CF4695F1DF80
:1038700008C0161617061806991FF1CF8695710510
:10388000610508940895E894BB2766277727CB0144
:1038900097F908958ADF08F48FEF08950BD0C0CF11
:1038A000B1DF28F0B6DF18F0952309F0A2CFA7CF3B
:1038B0001124EACFC6DFA0F3959FD1F3950F50E016
:1038C000551F629FF001729FBB27F00DB11D639FD2
:1038D000AA27F00DB11DAA1F649F6627B00DA11D78
:1038E000661F829F2227B00DA11D621F739FB00D1E
:1038F000A11D621F839FA00D611D221F749F33278E
:10390000A00D611D231F849F600D211D822F762F26
:103910006A2F11249F5750408AF0E1F088234AF023
:10392000EE0FFF1FBB1F661F771F881F915050406F
:10393000A9F79E3F510570F05CCFA6CF5F3FECF337
:10394000983EDCF3869577956795B795F795E7955B
:103950009F5FC1F7FE2B880F911D9695879597F96C
:10396000089511F40EF44BCF42C073DFD0F39923C6
:10397000D9F3CEF39F57550B87FF47D00024A0E61D
:1039800040EA900180585695979528F4805C660F20
:10399000771F881F20F026173707480730F4621B6F
:1039A000730B840B202931294A2BA6951794079471
:1039B000202531254A2758F7660F771F881F20F0EA
:1039C00026173707480730F4620B730B840B200D62
:1039D000311D411DA09581F7B901842F9158880FA1
:1039E000969587950895E1DE880B990B08959F3F82
:1039F00031F0915020F4879577956795B795880FAA
:103A0000911D9695879597F9089591505040660FAE
:103A1000771F881FD2F70895DB018F939F930E9431
:103A2000971DBF91AF91A29F800D911DA39F900DF7
:103A3000B29F900D11240895991B79E004C0991F3D
:103A4000961708F0961B881F7A95C9F780950895F8
:103A5000AA1BBB1B51E107C0AA1FBB1FA617B707B4
:103A600010F0A61BB70B881F991F5A95A9F78095D0
:103A70009095BC01CD01089597FB072E16F4009494
:103A800007D077FD09D00E94281D07FC05D03EF421
:103A9000909581959F4F0895709561957F4F0895FA
:103AA000A1E21A2EAA1BBB1BFD010DC0AA1FBB1F42
:103AB000EE1FFF1FA217B307E407F50720F0A21BB4
:103AC000B30BE40BF50B661F771F881F991F1A9421
:103AD00069F760957095809590959B01AC01BD014B
:103AE000CF010895052E97FB1EF400940E94891DB6
:103AF00057FD07D00E94501D07FC03D04EF40C94D4
:103B0000891D50954095309521953F4F4F4F5F4F00
:103B1000089590958095709561957F4F8F4F9F4F39
:103B20000895EE0FFF1F0590F491E02D09940E9477
:103B3000A21DA59F900DB49F900DA49F800D911D77
:103B400011240895A29FB001B39FC001A39F700DDF
:103B5000811D1124911DB29F700D811D1124911D95
:103B60000895CF93DF938230910510F482E090E0C6
:103B7000E091ED02F091EE0220E030E0A0E0B0E054
:103B8000309739F14081518148175907B8F04817EB
:103B9000590771F482819381109729F013969C93B1
:103BA0008E9312972CC09093EE028093ED0227C063
:103BB0002115310531F04217530718F0A901DB0137
:103BC00001C0EF019A01BD01DF010280F381E02D08
:103BD000D7CF21153105F9F0281B390B24303105D9
:103BE00080F48A819B816115710521F0FB0193832B
:103BF000828304C09093EE028093ED02FE01329620
:103C000044C0FE01E20FF31F8193919322503109CA
:103C1000398328833AC02091EB023091EC02232BA8
:103C200041F420910201309103013093EC02209382
:103C3000EB0220910001309101012115310541F481
:103C40002DB73EB74091040150910501241B350B5F
:103C5000E091EB02F091EC02E217F307A0F42E1BC7
:103C60003F0B2817390778F0AC014E5F5F4F2417E0
:103C7000350748F04E0F5F1F5093EC024093EB0264
:103C80008193919302C0E0E0F0E0CF01DF91CF910A
:103C90000895CF93DF93009709F487C0FC01329712
:103CA00013821282C091ED02D091EE02209781F42E
:103CB00020813181280F391F8091EB029091EC0215
:103CC0008217930779F5F093EC02E093EB026DC055
:103CD000DE0120E030E0AE17BF0750F412964D91A0
:103CE0005C9113979D014115510509F1DA01F3CF5C
:103CF000B383A28340815181840F951F8A179B074C
:103D000071F48D919C911197840F951F0296918368
:103D1000808312968D919C911397938382832115B2
:103D2000310529F4F093EE02E093ED023EC0D90193
:103D30001396FC93EE9312974D915D91A40FB51FCE
:103D4000EA17FB0779F480819181840F951F029611
:103D5000D90111969C938E938281938113969C93A3
:103D60008E931297E0E0F0E08A819B81009719F032
:103D7000FE01EC01F9CFCE01029628813981820F34
:103D8000931F2091EB023091EC022817390769F458
:103D9000309729F41092EE021092ED0202C01382C5
:103DA0001282D093EC02C093EB02DF91CF91089581
:103DB000A0E0B0E0EEEDFEE10C94C021EC01CB01FF
:103DC000209719F40E94B11DB8C0FE01E60FF71F3D
:103DD0009E0122503109E217F30708F4ACC0D90163
:103DE0000D911C91119706171707B8F005301105B2
:103DF00008F49FC0A801445051094617570708F41A
:103E000098C002501109061B170B019311936D9373
:103E10007C93CF010E94491E8CC05B01A01AB10A9D
:103E20004E01800E911EA091ED02B091EE02612C28
:103E3000712C60E070E0109709F449C0A815B9052D
:103E4000C9F5ED90FC901197670142E0C40ED11CBA
:103E5000CA14DB0478F147018A189B08640142E028
:103E6000C40ED11C1296BC9012971396AC91B5E07B
:103E7000CB16D10440F0B282A38391828082D90113
:103E80008D939C9309C00E5F1F4F0E0D1F1DF901EE
:103E900011830083EB2DFA2F6115710531F0DB01E1
:103EA0001396FC93EE93129744C0F093EE02E093C6
:103EB000ED023FC06D917C9111976616770608F46C
:103EC0003B01BD0112960D90BC91A02DB4CF609125
:103ED000EB027091EC0268157905E9F46816790631
:103EE000D0F440910001509101014115510541F478
:103EF0004DB75EB76091040170910501461B570BE9
:103F0000E417F507C0F4F093EC02E093EB02F9013B
:103F1000918380830EC00E94B11D7C01009759F0EF
:103F2000A801BE010E944321CE010E94491EC70183
:103F300004C0CE0102C080E090E0CDB7DEB7EEE075
:103F40000C94DC21A0E0B0E0E8EAFFE10C94C2218F
:103F50008B016115710521F0DB018C9311969C9307
:103F6000EC015E01BFEFAB1ABB0A7501C8808C2D56
:103F700090E00E942321892B11F0E501F2CFEDE2C0
:103F8000CE1208C07E01F2E0EF0EF11CC980DD24E4
:103F9000D39409C02BE2C21205C07E0142E0E40EB8
:103FA000F11CC980D12CE701219743E050E068EC77
:103FB00072E0CE010E942B21892BC1F4239645E0AB
:103FC00050E063EC72E0CE010E942B21892B09F4B2
:103FD00025960115110519F0D801CD93DC93D11068
:103FE00006C160E070E080E89FE70AC143E050E06E
:103FF00060EC72E0CE010E942B21892B59F401154F
:10400000110509F4F9C0B2E0EB0EF11CF801F182E0
:10401000E082F2C0F70160E070E0CB01C0E0D0E0E8
:104020007F01A0EDAA2EAC0C29E02A1530F14D2D10
:104030004260B42E2D2D2870D2FE04C0211125C05F
:10404000219623C021112197A5E0B0E09B01AC018E
:104050000E94971D660F771F881F991F6A0D711D9B
:10406000811D911D6839A9E97A078A07A9E19A0794
:1040700060F0BD2DB660BB2E08C02EEFA2120AC0A4
:10408000D3FC50C04D2D4860B42E3196D701CC9052
:10409000DB2CC6CF2C2D2F7D253409F043C0A08109
:1040A000AD3241F4BD2DB061DB2E7F0122E0E20E86
:1040B000F11C0CC07F01AB3231F04FEFE41AF40A6F
:1040C00021E030E006C0A2E0EA0EF11CA18122E06E
:1040D00030E0A053AA3018F0E21AF30A23C0F70127
:1040E00020E030E02038BCE03B075CF4A901440F3D
:1040F000551F440F551F240F351F220F331F2A0F42
:10410000311DAF014F5F5F4F7A01A081A053AA30EC
:1041100010F4FA01E7CFD4FE03C03195219531099F
:10412000C20FD31FD1FE09C00115110531F0E1E026
:10413000EE1AF108D801ED92FC920E94981B2D2DE9
:104140002370233019F04B015C0106C04B015C0168
:10415000B7FAB094B7F8B09420E030E0A901C501F7
:10416000B4010E94FB1A882309F43EC0D7FF06C0A1
:10417000D195C195D1090FED12E002C007EF12E011
:104180006801B8E1CB1AD10890E2E92EF12CCE15E6
:10419000DF0574F0F8012591359145915491C501E1
:1041A000B4010E944E1C4B015C01CE19DF09EFCF18
:1041B00004501109F594E7940C151D0541F78A2D5B
:1041C000880F8B2D881F8F3F49F020E030E0A90138
:1041D000C501B4010E94FB1A811106C082E290E081
:1041E0009093F0028093EF02C501B40109C060E032
:1041F00070E080E89FEF04C060E070E080EC9FE733
:10420000CDB7DEB7ECE00C94DE21FC0188279927BE
:10421000E89421912032E9F3293010F02E30C8F3D0
:104220002B3241F02D3239F4689404C00E947F2172
:10423000820F911D219120532A30C0F31EF49095D6
:1042400081959F4F0895911184C0803219F0895053
:104250008550D0F70895FB01DC014150504088F0B3
:104260008D9181341CF08B350CF4805E6591613446
:104270001CF06B350CF4605E861B611171F3990BB9
:104280000895881BFCCFFB01DC0102C001900D9258
:1042900041505040D8F70895DC0101C06D93415062
:1042A0005040E0F70895FC018191861721F08823A2
:1042B000D9F7992708953197CF010895FB01DC01C3
:1042C00001900D920020E1F708952532310520F488
:1042D000223010F00C947021FA011082CA01089566
:1042E000BB272A3051F4992342F4BDE29095809582
:1042F000709561957F4F8F4F9F4F0C9488217AE086
:10430000979F902D879F802D910D11240895BB2795
:10431000FA01A62F6217710581059105330B30FB59
:1043200066F0AA27660F771F881F991FAA1FA2177A
:1043300010F0A21B63953850A9F7A05DAA3308F0CE
:10434000A95DA19336F7B111B1931082CA010C9403
:10435000AC21992788270895DC01FC01672F719112
:104360007723E1F7329704C07C916D93708362915B
:10437000AE17BF07C8F308952F923F924F925F92F6
:104380006F927F928F929F92AF92BF92CF92DF9265
:10439000EF92FF920F931F93CF93DF93CDB7DEB7CA
:1043A000CA1BDB0B0FB6F894DEBF0FBECDBF09945E
:1043B0002A88398848885F846E847D848C849B84B5
:1043C000AA84B984C884DF80EE80FD800C811B81C3
:1043D000AA81B981CE0FD11D0FB6F894DEBF0FBEF2
:1043E000CDBFED01089513E0C4E0D3E004C0FE01A9
:1043F0000E94931D2296C630D107C9F7F894FFCFCB
:104400000000F10280000100000000401C460A008C
:104410000000000086039F037C02AD01FA02C00287
:10442000100331036503F1014702762E3230313734
:1044300030373235004142530052454C005400465B
:1044400000420042415544494F53000000000070B3
:1044500015DC16F2140B15FD144E150D0A006E61D5
:0C4460006E00696E66006F7666002E002C
:00000001FF
